:020000040800F2
:1000000000000520A1050008D5060008D706000855
:10001000D9060008DB060008DD0600080000000025
:100020000000000000000000000000008101010845
:10003000DF0600080000000021020108E1060008B8
:10004000F1050008F1050008F1050008F1050008B8
:10005000F1050008F1050008F1050008F1050008A8
:10006000F1050008F1050008F1050008F105000898
:10007000F1050008F1050008F1050008F105000888
:10008000F1050008F1050008F1050008F105000878
:10009000F1050008F1050008F1050008F105000868
:1000A000F1050008F1050008F1050008F105000858
:1000B000F1050008F1050008F1050008F105000848
:1000C000F1050008F1050008F1050008F105000838
:1000D000F1050008F1050008F1050008F105000828
:1000E000F1050008F1050008F1050008F105000818
:1000F000F1050008F1050008F1050008F105000808
:10010000F1050008F1050008F1050008F1050008F7
:10011000F1050008F1050008C9060008F10500080E
:10012000F1050008F1050008F1050008F1050008D7
:10013000F1050008F1050008F1050008F1050008C7
:10014000F1050008F1050008F1050008F1050008B7
:10015000F1050008F1050008F1050008F1050008A7
:10016000F1050008F1050008F1050008F105000897
:10017000F1050008F1050008F10500080000000085
:10018000F1050008F1050008F1050008F105000877
:10019000F1050008F1050008F1050008F105000867
:1001A000F1060008FD060008E5060008F105000854
:1001B000F1050008F1050008F1050008F105000847
:0801C000F1050008F10500083B
:1001D00010B5054C237833B9044B13B10448AFF381
:1001E00000800123237010BDC40000200000000027
:1001F000380E020808B5034B1BB103490348AFF39F
:10020000008008BD00000000C8000020380E020871
:1002100001F0FF01102A2BDB10F0070F08D010F8B7
:10022000013B013A8B422DD010F0070F42B3F6D1BB
:10023000F0B441EA012141EA014122F007047FF0D4
:1002400000070023F0E80256083C85EA010586EA2B
:10025000010685FA47F5A3FA87F586FA47F6A5FA67
:1002600087F68EB9EED1F0BC01F0FF0102F0070273
:1002700032B110F8013B013A83EA010313B1F8D11E
:100280000020704701387047002D06BF35460338FF
:10029000073815F0010F07D1013015F4807F02BF38
:1002A000013015F4C03F0130F0BC0138704700BF89
:1002B00053B94AB9002908BF00281CBF4FF0FF31CD
:1002C0004FF0FF3000F06AB9ADF1080C6DE904CED3
:1002D00000F006F8DDF804E0DDE9022304B0704721
:1002E0002DE9F047089D0C46002B4ED194468C45D5
:1002F0008646B2FA82F262D94AB1C2F12003914035
:1003000020FA03F30CFA02FC194300FA02FE4FEA4A
:100310001C471FFA8CF6B1FBF7F44FEA1E4307FBAC
:10032000141143EA014304FB06F199420AD91CEB7C
:10033000030304F1FF3080F01281994240F20F81F3
:10034000023C6344591A1FFA8EF3B1FBF7F007FB26
:10035000101143EA014300FB06F69E420AD91CEB4A
:10036000030300F1FF3180F0FC809E4240F2F980EF
:10037000634402389B1B40EA044000211DB1D34076
:100380000022C5E90032BDE8F0878B4205D90DB1E6
:10039000C5E9000100210846F5E7B3FA83F1002919
:1003A00046D1A34202D39042C0F0F080861A64EB9B
:1003B00003030120002DE6D0C5E90063E3E7002A2E
:1003C00040F09080A1EB0C044FEA1C481FFA8CF718
:1003D0000121B4FBF8F64FEA1E4308FB164443EA3A
:1003E000044307FB06F0984208D91CEB030306F10F
:1003F000FF3402D2984200F2CD8026461C1A1FFA22
:100400008EF3B4FBF8F008FB104443EA044300FB0E
:1004100007F79F4208D91CEB030300F1FF3402D217
:100420009F4200F2B0802046DB1B40EA0640A5E771
:10043000C1F120068B4022FA06F71F4320FA06FC82
:1004400004FA01F343EA0C03F44000FA01F8380C13
:100450004FEA1349B4FBF0FE1FFA87FC00FB1E4471
:1004600049EA04440EFB0CF9A14502FA01F20AD94B
:100470003C190EF1FF3A80F08480A14540F2818062
:10048000AEF1020E3C44A4EB09041FFA83F9B4FB5D
:10049000F0F300FB134449EA044403FB0CFCA445BD
:1004A00007D93C1903F1FF3067D2A44565D9023B57
:1004B0003C4443EA0E40A0FB0293A4EB0C049C4294
:1004C000CE469C4651D34ED055B1B8EB0E0364EBEB
:1004D0000C0404FA06F6CB401E43CC40C5E9006488
:1004E000002150E7C2F1200320FA03F10CFA02FCCC
:1004F00024FA03F394400C434FEA1C4800FA02FE2E
:100500001FFA8CF7B3FBF8F008FB1031230C43EA19
:10051000014300FB07F1994208D91CEB030300F1EA
:10052000FF362CD299422AD9023863445B1AA4B20E
:10053000B3FBF8F108FB113344EA034401FB07F372
:10054000A34208D91CEB040401F1FF3613D2A342E5
:1005500011D902396444E41A41EA004139E70446FA
:10056000F0E6084606E7C845AED2B9EB020E63EBEB
:10057000070C0138A8E73146EDE7034699E7304616
:10058000D4E7D6467FE7634402384DE70646234664
:1005900008460FE7023E634430E700BF704700BFE4
:1005A000DFF834D0002103E00C4B5B58435004319A
:1005B0000B480C4B42189A42F6D30B4A02E0002338
:1005C00042F8043B094B9A42F9D30CF05FFF1FF04D
:1005D00073FE00F017F87047000005208C400308F8
:1005E00000000020C4000020C4000020D0500220E1
:1005F000FEE70000024B18680368DB68184700BF7D
:10060000344E022007B511F0C5F811F07DFB41F220
:100610007C51084818F03CF903220023064907489A
:10062000CDE9002340F2DC5210F068FB10F038FDF9
:10063000FEE700BFE000002090280208F505000852
:1006400001460022362010B588B00CF093FF36200A
:100650000CF0C2FF174B01A903A81A6C42F010025C
:100660001A641B6C03F010030293029B0EF0F4FE5D
:10067000069BCBB90EF0E0FE0F4C104B236040F20E
:10068000E733E3600E4BB0FBF3F00138002360600A
:1006900020462361A360A3610FF072FB40B920469E
:1006A0000FF016FA08B010BD0EF0C6FE4000E3E7EA
:1006B0000120F7E7003802406016002000100040DB
:1006C00040420F000CF020BF01480FF043BA00BFBA
:1006D000601600207047FEE7FEE7FEE7FEE7704782
:1006E0000FF00BBC01480DF019BA00BF24280220FE
:1006F00001480EF00BB800BFC41C0220054B9A6BDA
:10070000920705D50222DA63034A136801331360A6
:10071000704700BF00680140AC16002070471229E6
:1007200023D8DFE801F00A0C0A0E10121416181A6A
:100730000A1C1E201A1E1E0A180000F03FB900F005
:1007400005B900F0AFB900F057BA00F08FBA00F069
:10075000E1B900F019BA00F01DB800F089B800F056
:10076000BFB800F065B900F04BB80020704710B575
:10077000044604211EF0D7F9204610BD704770478B
:1007800070477047704770477047704770477047B1
:100790007047704730B5144D89B02C68BFF35B8F3C
:1007A00014F001041CD128461EF0BFF9C0B10F4B54
:1007B00004220F49281D05930E4B04930123CDE914
:1007C00002330223CDE90644CDE900320C230F2287
:1007D0001BF084F908481FF0EBFA28461EF0B1F927
:1007E000064809B030BD00BFB0160020C4E60208BC
:1007F000F4E60208987002087D070008B41600208D
:1008000030B5154D89B06C6ABFF35B8F14F00104ED
:100810001FD105F124001EF088F9D0B10F4B04223E
:100820000F4905F1280005930E4B04930123CDE9F0
:1008300002330323CDE90644CDE900320F232522FC
:100840001BF04CF908481FF0B3FA05F124001EF024
:1008500078F9064809B030BDB0160020C8E6020895
:10086000C8E702080C72020881070008D8160020A9
:1008700030B5154D89B0AC6CBFF35B8F14F001043B
:100880001ED105F148001EF050F9C8B10F4B1D22D2
:100890000F4905F14C0005930E4B04930123CDE95C
:1008A00002330423CDE90644CDE9003312231BF0C3
:1008B00015F909481FF07CFA05F148001EF041F9CE
:1008C000064809B030BD00BFB0160020CCE60208D3
:1008D000D0E902081478020883070008FC160020FB
:1008E00030B5144D89B0EC6EBFF35B8F14F001048A
:1008F0001DD105F16C001EF018F9C0B10E4B0B2292
:100900000E4905F1700005930D4B0294CDE90343A8
:100910000423CDE90644CDE900432E231BF0DEF885
:1009200008481FF045FA05F16C001EF00AF9064868
:1009300009B030BDB0160020D0E6020868EB02080E
:100940007C7E0208850700082017002030B5154D71
:1009500089B0D5F89040BFF35B8F14F001041ED12D
:1009600005F190001EF0E1F8C8B10F4B14220F49B9
:1009700005F1940005930E4B04930123CDE9024346
:100980000423CDE90644CDE900430B231BF0A6F870
:1009900008481FF00DFA05F190001EF0D2F8064845
:1009A00009B030BDB0160020D4E6020804EC0208FD
:1009B000608F0208870700084417002030B5164DE5
:1009C00089B0D5F8B440BFF35B8F14F001041FD198
:1009D00005F1B4001EF0A9F8D0B1104B0422104963
:1009E00005F1B80005930F4B04930123CDE90233C1
:1009F0000223CDE90644CDE900320C2347221BF047
:100A00006DF809481FF0D4F905F1B4001EF099F80B
:100A1000064809B030BD00BFB0160020D8E6020875
:100A20001CED0208309102088907000868170020B1
:100A300030B5164D89B0D5F8D840BFF35B8F14F0B0
:100A400001041FD105F1D8001EF06FF8D0B1104B92
:100A50000422104905F1DC0005930F4B0493012398
:100A6000CDE902330323CDE90644CDE900320F235B
:100A70002A221BF033F809481FF09AF905F1D80033
:100A80001EF05FF8064809B030BD00BFB016002068
:100A9000DCE6020800F10208849702088B070008D0
:100AA0008C17002030B5154D89B0D5F8FC40BFF348
:100AB0005B8F14F001041ED105F1FC001EF035F827
:100AC000C8B10F4B1D220F4905F5807005930E4BE1
:100AD00004930123CDE902430423CDE90644CDE983
:100AE000003312231AF0FAFF08481FF061F905F1EC
:100AF000FC001EF026F8064809B030BDB0160020F4
:100B0000E0E602084CF30208C49D02088D070008C5
:100B1000B017002030B5164D89B0D5F82041BFF38D
:100B20005B8F14F001041FD105F590701DF0FDFFDF
:100B3000D0B1104B0422104905F5927005930F4B6C
:100B400004930123CDE902330323CDE90644CDE923
:100B500000320C234B221AF0C1FF09481FF028F97C
:100B600005F590701DF0EDFF064809B030BD00BFDF
:100B7000B0160020E4E60208E4F40208F4A3020838
:100B80008F070008D417002030B5154D89B0D5F86F
:100B90004441BFF35B8F14F001041DD105F5A27031
:100BA0001DF0C3FFC0B10F4B1D220F4905F5A47006
:100BB00005930E4B0294CDE903430423CDE906448B
:100BC000CDE9003312231AF089FF09481FF0F0F82D
:100BD00005F5A2701DF0B5FF064809B030BD00BF95
:100BE000B0160020E8E6020800F9020830AC02085E
:100BF00091070008F817002030B5164D89B0D5F8D8
:100C00006841BFF35B8F14F001041FD105F5B47088
:100C10001DF08BFFD0B1104B0422104905F5B670C2
:100C200005930F4B04930123CDE902330223CDE951
:100C30000644CDE900320C23C5221AF04FFF0948C3
:100C40001FF0B6F805F5B4701DF07BFF064809B03B
:100C500030BD00BFB0160020ECE6020898FA02088A
:100C6000F4B20208930700081C18002030B5164D96
:100C700089B0D5F88C41BFF35B8F14F001041FD10C
:100C800005F5C6701DF051FFD0B1104B012210497F
:100C900005F5C87005930F4BCDE903430423CDE957
:100CA000013202231B2200931223CDE906441AF0DD
:100CB00015FF09481FF07CF805F5C6701DF041FFCF
:100CC000064809B030BD00BFB0160020F0E60208AB
:100CD00060050308B0DC02087F0700084018002008
:100CE00000487047640E0208792070470A490B4A91
:100CF00038B551F820301080536000F023F80546D5
:100D000000F028F8044600F023F8054B1D60054B61
:100D10001C60054B188038BDF43E030860180020A5
:100D2000B44E0220BC4E0220B84E0220034B044AAF
:100D3000198852F821205A60704700BF60180020BF
:100D4000F43E0308014B53F820007047083F0308A6
:100D500037207047004870477818002010B5134CB2
:100D6000FFF72CFE2060FFF7F1FD6060FFF79AFEB1
:100D7000A060FFF741FFE060FFF778FF2061FFF719
:100D8000C9FE6061FFF700FFA061FFF703FDE061AE
:100D9000FFF76EFD2062FFF7A3FD6062FFF748FEDC
:100DA000A062FFF72DFDE06210BD00BF78180020A3
:100DB00070B51D4603680446BDF910605B6B98472B
:100DC0002368294620469B6B984723683146204676
:100DD000DB6BBDE87040184781807047C180704769
:100DE000036870B50446DB6A1546984723682046B9
:100DF00029461B6BBDE8704018470181704741814F
:100E000070477047704770477047704710B4C48888
:100E10000368121B84885B6D091B12B25DF8044BDA
:100E200009B218474FF6FF7383814FF0FF33036217
:100E30001368C3611060704701207047122070472B
:100E400090F82C00704705207047000038B5074B1C
:100E500004464FF47075036063596019643D1B6864
:100E6000984715F1280FF7D1204638BDE017020842
:100E70007047C1867047A0F8541070470368D3F8D4
:100E80008430184790F8500070477047704770479B
:100E900030B444680346C2689B68551004EB620096
:100EA000D20748BF625930BC48BFD35818470346E1
:100EB000406830B19A681AB9D86800F001007047EC
:100EC0000120704730B444680346C2689B685510DF
:100ED00004EB6200D20748BF625930BC48BFD35808
:100EE00018470346406830B19A681AB9D86800F0CC
:100EF000010070470120704730B444680346C2685F
:100F00009B68551004EB6200D20748BF625930BCA1
:100F100048BFD35818470346406830B19A681AB999
:100F2000D86800F00100704701207047C08E7047FC
:100F300090F833007047B0F85400704710B504467D
:100F400064211DF0F0FD204610BD10B504461021AF
:100F50001DF0E9FD204610BD10B5044610211DF01E
:100F6000E2FD204610BD10B5044610211DF0DBFD4A
:100F7000204610BD10B50446FFF768FF40F25C4103
:100F800020461DF0D0FD204610BD90F82C30012BDE
:100F900010B5044601D0CBB110BD00230522D4F812
:100FA000580484F82E3084F82C200028F4D00368EC
:100FB000DB6898470028EFD0D4F85804214694F80D
:100FC0002E200368BDE810409B6818470123E5E721
:100FD00090F825201AB190F8242002B118607047CB
:100FE0002DE9F84F90F82C3004460E46052B40F0C2
:100FF000AF8090F82E2000F13C0590F82434002AB0
:1010000000F087809BB1642707FB030103683C3134
:101010009B6E984794F8243421682046013B7B431B
:101020008F6F03F1A0023C332244E118B84794F8D3
:1010300024742A4694F82D1000238B4203DA96423A
:101040002BD184F82434642694F824144FF03C08FF
:10105000236820464FF0000B16FB01819B6E214454
:10106000984794F82434204616FB038123685E4693
:1010700021445B6E9847594694F82D309B450FDB11
:10108000012384F82C30636B002B61DD18F092FD96
:101090002146BDE8F84F18F0C3BD01336432CCE7F8
:1010A0005F452FD094F8323083BBB4F90830B5F9DE
:1010B0000820A3EB02092A6801F1010A4900284629
:1010C000D26E0FFA89F989B2904795F83310B5F9C5
:1010D000068021B918F06EFD294618F071FD142321
:1010E000A988AE862B873E4B69876B64E9883D4BA8
:1010F000A9875146AB640123A5F83E90A5F840802E
:1011000085F833300BF1010B6435B5E74FF000097A
:10111000D1E7642202FB0303B3F9446090F8323054
:10112000C3B9B0F908309E1B4FF0000B5B46D846A0
:1011300094F82D20934510DB0025636BAB4284F8B7
:101140002C5005DD18F036FD214618F039FDA56359
:10115000BDE8F88F038E1E44E6E794F824245A4530
:101160003BD094F8322022B9B5F90820218E0A44E8
:10117000B61A5F1C5B0028460FFA86FA99B22B68F4
:10118000DB6E984795F83310B5F9069021B918F041
:1011900011FD294618F014FD1423A988A5F8348000
:1011A0002B870F4B69876B640E4BE988AB64012377
:1011B000A98785F8333094F83230A5F83EA0012B8A
:1011C000A5F8409004D1B5F90830228E13441E448E
:1011D0000BF1010B64353B46AAE71F46F8E700BF59
:1011E0009DB101089BB501084FF480724FF6FF7165
:1011F0002DE9F843828400233F4A044600F2244547
:10120000C36102600522836282854FF4803280F8D8
:101210002E308363394EC0E90C23C0E9013300F15D
:101220003C02C0E90333C0E9053301209380D38039
:10123000138153819381D38113825382D36182F8C6
:101240002500936282F82C3082F82400D185118623
:1012500082F8321082F833309386D386D3641660D6
:1012600082F85030A2F85230A2F854301366C2E926
:1012700005336432AA42D9D1214A04F57075A4F12C
:1012800028064FF00009C4F8282404F585681D4A93
:1012900004F5896784F82434C4F830241A4AC4F861
:1012A0002C44C4F83824194AC4F83434C4F840240F
:1012B000174AC4F83C44C4F84824164AC4F84434D5
:1012C000C4F84C44C4F85024C4F85434C4F8583416
:1012D00004F5876385F82590C5F8288029462F6690
:1012E000643DC5F8B030204611F032FDAE42EFD17A
:1012F0002046BDE8F88300BFE0170208A0280208D6
:1013000030290208E10F0008482902088B0F000865
:10131000602902086F14000838B5642590F82D3054
:10132000044605FB0300C36B3C309B6E984794F862
:101330002D30012205FB0345134485F8612084F814
:101340002D3038BD0186704780F832107047F8B5EF
:101350000446002390F82D0022461D46461E1946DD
:10136000984211DC236809B2204600269B6B9847FF
:10137000236829B204F13C05DB6B2046984794F8BA
:101380002D30B34211DCF8BDB2F944709E4202F137
:10139000640203F101033944C4BF278EC91932F92D
:1013A0001E7CBD42B8BF3D46DAE72B6894F8322078
:1013B0005B6B42B921892889091A09B2284601368E
:1013C00064359847DBE700221146F7E7F8B50026B9
:1013D000044600F13C05374694F82D30B34203DC57
:1013E000012384F83330F8BD2B68284685F8257032
:1013F00001365B6964359847EEE790F83300704733
:1014000090F82E303BB190F82434642202FB0301A3
:101410003C31FFF7E5BD7047826B436B01329A4266
:10142000826301DBFFF7ECBF704790F82E303BB9C9
:1014300090F82434642202FB03013C31FFF7D0BD55
:1014400070474163704770B5044600F13C050026C3
:1014500094F82D30B34201DC002070BD2B68284683
:1014600064355B6F98470028F7D10136F0E7F8B58F
:101470000446FFF7E8FF054640B994F82C30032BEB
:1014800005D1052384F8330084F82C30F8BD022BF5
:1014900015D1052304F13C06074684F82C300123BE
:1014A00084F8333094F82D309D42EFDA33683046BB
:1014B00086F8257001355B6964369847F2E7042B9E
:1014C000E4D1052384F83300204684F82C30BDE8AD
:1014D000F840FFF7AABF90F82404704790F8333023
:1014E0002DE9F04104462BB1828EC18E8A4203D28F
:1014F00001328286BDE8F081038FC818824217D975
:10150000002384F83330A38618F054FB214618F0EA
:1015100087FBE06C0028EDD00368DB689847002863
:10152000E8D0E06C21460368BDE8F0419B681847AD
:10153000521A618F666C95B2E28F521A28460021CA
:1015400012B2B047A38FB4F8402006460021A76C22
:10155000D21A2846238F12B2B847A38FC218638FBE
:101560002046F11812B209B2FFF750FCA38EE28EAA
:101570000133218F9BB20A449342A386BAD9BFE7B5
:1015800090F8503070B5044643B1B0F85200B4F84A
:101590005410884203D20130A4F8520070BDB4F850
:1015A0005630CA18904218D9002384F85030A4F855
:1015B000563018F0FFFA214618F032FB206E002852
:1015C000ECD00368DB6898470028E7D0206E2146FE
:1015D0000368BDE870409B681847B4F85850401A3B
:1015E000B4F85A20002180B2521BE56D12B2A84710
:1015F000B4F85830184484F83200204618F0C5FE7C
:10160000B4F85230B4F854200133B4F856109BB2F9
:101610000A449342A4F85230C0D9C5E710B5044635
:10162000FFF75CFF2046FFF7ABFF10BDF8B51D4686
:1016300090F8503004460F46164623B918F0BAFA0F
:10164000214618F0BDFA0023A4F85660A4F85A7099
:10165000A4F8523094F83230E565A4F858300123EC
:1016600084F85030636D13B92046FFF789FFF8BD49
:101670002DE9F0410023064690F82D2064246130C6
:1016800001259A421DDC96F82E7006F13C04EFB954
:101690008DB2DFF87C8096F82D30BB421EDD96F8C7
:1016A00024242368BA42DB6F2BD1002120469847BF
:1016B00043462A462046FF2101376434FFF7B6FF30
:1016C000E9E704FB03F70133C555DAE700278DB2DC
:1016D000DFF83C8096F82D30BB4204DC032386F80B
:1016E0002C30BDE8F0812368204600210137DB6FF4
:1016F0009847204643462A46FF216434FFF796FF69
:10170000E8E729462046984743460122D2E700BF32
:101710009BB5010810B50446FFF7AAFF042384F81F
:101720002C3010BD7047704782B002AB03E9060051
:1017300002B0704770477047C06803689B681847DD
:10174000A0F10400FFF7F8BF70470438704710B5E8
:10175000044610211DF0E7F9204610BDA0F1040059
:10176000F5E700000022C1608260044A10B502F172
:10177000080424320460426010BD00BF68180208EB
:1017800008B518F017FABDE8084000F0A5BC000045
:1017900038B5074B04464FF405750360635960196B
:1017A0002C3D1B6898475C2DF8D1204638BD00BF02
:1017B000AC18020810B50446FFF7EAFF4FF41171A8
:1017C00020461DF0B0F9204610BD0000064A026018
:1017D0000022C0E90122C0E90322C0E90522C2615A
:1017E0004FF4807282847047586402082DE9F347F1
:1017F00004460025FFF7EAFF294B2746A56204F1BE
:101800005C084FF6FF7647F82C3B3846FFF7DEFFC3
:10181000244BDFF894904046E3620223656504F5AB
:10182000107A84F85830A4F85A5004F18805ADF8BD
:101830000460FFF7CBFF01A94046C4F85C90A4F810
:10184000826084F8846015F082FD2846ADF804605B
:10185000FFF7BCFFC5F80090EE84284685F82860A5
:101860002C3501A915F073FDAA45EED100253846A7
:101870002A462946A4F84052FFF7B2FA2A462946DA
:101880004046FFF7ADFA3946204611F061FA20468E
:10189000414611F05DFA204602B0BDE8F08700BF76
:1018A000AC18020820520208B85F020890F84032D3
:1018B00080F841128B4282BFB0F8903013FB01F3E5
:1018C000A0F8603003685B6918470000F8B504466B
:1018D00080F8401229B9194B2C21194A19481EF0D9
:1018E00049FA0A2903D9184B2D21154AF6E700F1C8
:1018F0002C0704F188060025384611F0E4FB94F823
:101900004032AB4213DC23682046B4F934109B6BA1
:1019100098472368B4F936102046DB6B98470021BE
:10192000204684F84112BDE8F840FFF7BFBF3146BA
:10193000384601352C3611F07DFCE0E770290208AD
:10194000A1290208CD290208152A020870B58825A8
:1019500004460E465C30114615F0F9FC63596019D7
:101960002C3531465B6E9847B5F5057FF6D194F876
:10197000401221B12046BDE87040FFF7A7BF70BDFF
:1019800090F8411290F84022013110B4B1FBF2F40A
:1019900002FB14115DF8044BC9B280F84112FFF745
:1019A00085BF90F8402290F841121144013910B4DB
:1019B00091FBF2F402FB14115DF8044BC9B280F8FC
:1019C0004112FFF773BF704770474160704770471F
:1019D0007047704701230372704770477047704724
:1019E00030B444680346C2689B68551004EB62003B
:1019F000D20748BF625930BC48BFD3581847034686
:101A0000406830B19A681AB9D86800F00100704790
:101A10000120704730B444680346C2689B68551083
:101A200004EB6200D20748BF625930BC48BFD358AC
:101A300018470346406830B19A681AB9D86800F070
:101A4000010070470120704710B441680346C26826
:101A50009B68541001EB6200D20748BF0A595DF839
:101A6000044B48BFD35818470346406830B19A68C2
:101A70001AB9D86800F0010070470120704710B50E
:101A800004460C211DF04FF8204610BD10B5044649
:101A900010211DF048F8204610BD10B504464FF443
:101AA000B0711DF040F8204610BD10B5044610215D
:101AB0001DF039F8204610BD10B5044610211DF068
:101AC00032F8204610BD000070B50446D0F84C0135
:101AD00009F0BEFF204617F077FFD4F8503194F894
:101AE0005A510133B4F85C11C4F85031B4F858318C
:101AF00003B98DB3D4F84C0194F85831827994F835
:101B00005961D21AC3799B1B4EF6602673431A4E55
:101B100006FB0233027A521B4FF47A7505FB02333F
:101B20004289521A9B1805D503F1A46303F5CB2310
:101B300003F58063114A934210DDD4F85431B0218B
:101B4000013393FBF1F201FB1232C4F8543132B984
:101B5000BDE8704009F0D6BF0029CBD170BD4FF46D
:101B6000137293FBF2F102FB1133002BF6D1BDE8A7
:101B7000704009F0CBBF00BF80EE36001FBF0200EF
:101B800070B516460C46054618F014F818F05FF8C4
:101B9000306810B10368DB689847306810B103689B
:101BA0001B689847286810B103685B6998472068EC
:101BB00010B103685B689847286810B103681B6818
:101BC0009847206820B10368BDE870409B681847BB
:101BD00070BD036870B50E46DB681446054698472D
:101BE000336830461B6898472146284619F078F834
:101BF000236820461B69984717F0DCFF0368BDE89F
:101C000070409B6A18470000044B01461B7823B1C3
:101C100040680C3103689B6E18477047334E0220B2
:101C2000034B00211A88036852425B6D12B21847B9
:101C30002A4E02200346084693F85030032B1BD847
:101C4000DFE803F0111302090B6800220B495B6DFA
:101C5000B1F900101847094B00221988036849425E
:101C60005B6D09B2F6E7FFF7DBBF0B680021044AA2
:101C70005B6DB2F90020EDE7704700BF284E0220EF
:101C80002A4E0220044B01461B7823B140680C31D8
:101C900003689B6E18477047334E02200346084680
:101CA00093F85030032B1BD8DFE803F0111302091F
:101CB0000B6800220B495B6DB1F900101847094B06
:101CC00000221988036849425B6D09B2F6E7FFF705
:101CD000A7BF0B680021044A5B6DB2F90020EDE755
:101CE000704700BF284E02202A4E0220254B1B7849
:101CF00010B5044613B90123037210BD90F85200C9
:101D000094F851300130C0B2984284F8520029D87A
:101D1000B4F95420002119F041FAC30706D5002870
:101D20004FF6FF73C8BF0123184400B294F8503037
:101D30000146A4F85600012B1AD9023B012B1ED8EC
:101D4000238A0022C91A09B2A4F8561004F10C0023
:101D500018F04DFB606804F140010368BDE81040D5
:101D6000DB6F184701232372002384F85230C4E745
:101D7000638A0021C01A02B2A4F85620E6E70123C4
:101D80002372E7E7334E0220254B1B7810B504463B
:101D900013B90123037210BD90F8520094F851302A
:101DA0000130C0B2984284F8520029D8B4F95420C6
:101DB000002119F0F3F9C30706D500284FF6FF7389
:101DC000C8BF0123184400B294F850300146A4F86B
:101DD0005600012B1AD9023B012B1ED8238A002260
:101DE000C91A09B2A4F8561004F10C0018F0FFFA51
:101DF000606804F140010368BDE81040DB6F1847DC
:101E000001232372002384F85230C4E7638A00213F
:101E1000C01A02B2A4F85620E6E701232372E7E7CE
:101E2000334E022010B50446D0F8340158B103688F
:101E3000DB68984738B1D4F8340103689B68984749
:101E40000023C4F8343110BD1FB50C4B04461B7879
:101E50008BB10B4B18226946CDE900304068012355
:101E6000CDE902230368DB6F9847606804F10C0139
:101E700003685B6E984704B010BD00BF334E02206C
:101E8000383202081FB50C4B04461B788BB10B4B44
:101E900018226946CDE9003040680123CDE90223CC
:101EA0000368DB6F9847606804F10C0103685B6EA0
:101EB000984704B010BD00BF334E022078320208AC
:101EC00003460846DA6B8A4210B417D093F85020C4
:101ED000012A0BD9023A012A0ED80A68B3F9561022
:101EE000546D002223465DF8044B18470A68002110
:101EF000546DB3F95620F5E701221A725DF8044BD0
:101F0000704703460846DA6B8A4210B417D093F83C
:101F10005020012A0BD9023A012A0ED80A68B3F9D7
:101F20005610546D002223465DF8044B18470A688A
:101F30000021546DB3F95620F5E701221A725DF8BD
:101F4000044B70472DE9F84FD0E95249074600F598
:101F50009875A06803681B6A984740F273639842BB
:101F600005D82A4BC2212A4A2A481DF003FF60687F
:101F700003681B6A9847132803D8274BC321244AB8
:101F8000F2E7E06803681B6A98470B2803D8234BE5
:101F9000C4211F4AE8E7DFF88CB02946DFF888A0A3
:101FA0004FF000085A465046FFF7EAFDE06800216E
:101FB00003685B6A98471A4B0546C0F8048080F8AE
:101FC000088041460360A06803685B6A984706463C
:101FD00009F01EFB6068414603685B6A9847044647
:101FE000314609F0BBF9231DC7F830412A46CBF82A
:101FF00000502146CAF800603046C9F80030C4F8E5
:102000000890F463BDE8F84FFFF7E3BD502A0208DB
:10201000DE2A0208B22B0208052C0208A82C0208AE
:1020200018320208AC4E0220A84E022070B50446B9
:1020300016460D4617F028FE0B4A00232046146072
:102040000A4AA4F858312260094A84F85A31A4F89F
:102050005C31C4E94C33C4E94E23C4E95033C4E9CC
:102060005265C4E9543370BDB04E02203C190208D9
:1020700000320208D0F84C311A7AD9885B89A0F86E
:102080005811A0F85C31002380F85A21C0F854316F
:10209000704710B5044617F051FC2046BDE81040CB
:1020A000FFF7E8BF10B5044617F070FC2046BDE806
:1020B0001040FFF7DFBF0000064BC0F83C01C0F83E
:1020C00040310023C0F8443100F59C73C0F834312E
:1020D000704700BF451F0008064BC0F83C01C0F820
:1020E00040310023C0F8443100F59C73C0F834310E
:1020F000704700BFD9210008064BC0F83C01C0F86A
:1021000040310023C0F8443100F59C73C0F83431ED
:10211000704700BF85260008064BC0F83C01C0F898
:1021200040310023C0F8443100F59C73C0F83431CD
:10213000704700BFAD250008064BC0F83C01C0F851
:1021400040310023C0F8443100F59C73C0F83431AD
:10215000704700BFD5240008064BC0F83C01C0F80A
:1021600040310023C0F8443100F59C73C0F834318D
:10217000704700BFFD23000803685B6A1847000032
:10218000044B10B5044640F80C3B14F0D1FB20463C
:1021900010BD00BF9032020810B50446FFF7F0FFF3
:1021A000582120461CF0BFFC204610BD044B10B542
:1021B000044640F80C3B14F0BBFB204610BD00BFAA
:1021C0005032020810B50446FFF7F0FF58212046B0
:1021D0001CF0A9FC204610BD2DE9F74FD0E952585C
:1021E000074600F59874A86803681B6A984740F290
:1021F0007363984205D84A4BC2214A4A4A481DF0A7
:10220000B9FD686803681B6A9847132803D8474BD1
:10221000C321444AF2E7E86803681B6A98475728D5
:1022200003D8434BC4213F4AE8E7424A214642488B
:102230004FF00009FFF7A4FCE868002103685B6A1F
:1022400098473E4B06460446C0F8049080F8089034
:1022500046F80C3B304614F0D5FB394B1C22E663A4
:1022600084F85290A4F85690C4E910340123C4E9CC
:1022700012234FF4A053A4F85030324B1B7803B311
:10228000DFF8C4A04A46DFF8C4B04946BAF90030C6
:1022900030460093BBF90030FEF78AFD304614F05B
:1022A00049FB94F85030032B36D8DFE803F02F3287
:1022B0000206BBF800305B4201E0BBF80030A4F836
:1022C0005430A868002103685B6A9847064609F005
:1022D0009FF96868002103685B6A984731460546A4
:1022E00009F03CF8134B2246294630461C60124B3D
:1022F000C7F830511E602B1DC8F80030C5F80880A3
:10230000F56303B0BDE8F04FFFF763BCBAF80030E7
:10231000D5E7BAF80030CEE701232372D1E700BF3A
:10232000502A02084B2D0208B22B0208052C020885
:10233000A82C0208AC4E0220A84E022050320208FF
:1023400038320208334E02202A4E0220284E022044
:102350002DE9F341244B00260546044646600F460E
:10236000067245F80C3B284614F04CFB1F4B1C2210
:10237000E56384F8517084F85260A4F85660C4E9AB
:1023800010340123C4E9122384F85030184B1B7811
:10239000FBB1184F3246DFF860803146B7F90030A4
:1023A00028460093B8F90030FEF702FD284614F0E5
:1023B000C1FA94F85030032B13D8DFE803F00E1065
:1023C0000206B8F800305B4201E0B8F80030A4F82B
:1023D0005430204602B0BDE8F0813B88F7E73B88E7
:1023E000F1E701232372F4E7903202087832020801
:1023F000334E02202A4E0220284E02202DE9F047BB
:10240000D0E95248064600F59875A06803681B6A33
:102410009847B0F5106F05D2274BC221274A2848AC
:102420001DF0A8FC606803681B6A9847132803D84E
:10243000244BC321214AF2E7E06803681B6A9847EE
:10244000572803D8204BC4211C4AE8E7DFF87CA0BA
:102450002946DFF87C9052464846FFF791FB002161
:10246000E068FFF789FE14210746FFF771FFA068B7
:10247000002103685B6A9847054609F037FC6068ED
:10248000002103685B6A98470446294609F05AFB15
:10249000231DC6F830413A46CAF800702146C9F8F3
:1024A00000502846C8F80030C4F80880EC63BDE846
:1024B000F047FFF78EBB00BF502A0208332E0208F8
:1024C000B22B0208052C0208A82C0208AC4E0220F0
:1024D000A84E02202DE9F047D0E95248064600F503
:1024E0009875A06803681B6A984741F26B4398424D
:1024F00005D8274BC221274A27481DF03BFC6068BE
:1025000003681B6A9847132803D8244BC321214A28
:10251000F2E7E06803681B6A9847572803D8204B06
:10252000C4211C4AE8E7DFF87CA02946DFF8789050
:1025300052464846FFF724FB0021E068FFF71CFEE7
:1025400014210746FFF704FFA068002103685B6AB7
:102550009847054604F09AFF6068002103685B6AAB
:1025600098470446294604F0B9FB231DC6F83041BC
:102570003A46CAF800702146C9F800502846C8F803
:102580000030C4F80880EC63BDE8F047FFF721BBDA
:10259000502A02082B2F0208B22B0208052C020831
:1025A000A82C0208AC4E0220A84E02202DE9F047CC
:1025B000D0E95248064600F59875A06803681B6A82
:1025C000984741F64703984205D8274BC221274A2E
:1025D00027481DF0CFFB606803681B6A98471328E3
:1025E00003D8244BC321214AF2E7E06803681B6A41
:1025F0009847572803D8204BC4211C4AE8E7DFF846
:102600007CA02946DFF8789052464846FFF7B8FA92
:102610000021E068FFF7B0FD14210746FFF798FEA0
:10262000A068002103685B6A9847054606F094FBA2
:102630006068002103685B6A98470446294606F0F3
:10264000C9F9231DC6F830413A46CAF80070214640
:10265000C9F800502846C8F80030C4F80880EC6378
:10266000BDE8F047FFF7B5BA502A02081F3002084C
:10267000B22B0208052C0208A82C0208AC4E02203E
:10268000A84E02202DE9F047D0E95248064600F551
:102690009875A06803681B6A984741F60B23984217
:1026A00005D8274BC221274A27481DF063FB6068E5
:1026B00003681B6A9847132803D8244BC321214A77
:1026C000F2E7E06803681B6A9847572803D8204B55
:1026D000C4211C4AE8E7DFF87CA02946DFF878909F
:1026E00052464846FFF74CFA0021E068FFF744FDE8
:1026F00014210746FFF72CFEA068002103685B6ADF
:102700009847054601F056F86068002103685B6A47
:1027100098470446294600F0D7FD231DC6F83041EE
:102720003A46CAF800702146C9F800502846C8F851
:102730000030C4F80880EC63BDE8F047FFF749BA01
:10274000502A020801310208B22B0208052C0208A7
:10275000A82C0208AC4E0220A84E02200186704729
:1027600070B5044600F520700D4610F063FD94F836
:102770002D1004F13C000131C9B284F82D10FFF78F
:10278000A5F82368B5F9081020469B6B9847236885
:10279000B5F90A102046DB6BBDE87040184790F889
:1027A0002C30042B10B504462AD10B79012B27D1EC
:1027B000B0F93230B0F88422002B8386C28620DA4A
:1027C00090F82D2090F83810013A914215D0028EE1
:1027D0005242934211DC0223D4F8B00284F82C3028
:1027E00070B10368DB68984750B1D4F8B002214655
:1027F0000368BDE810409B681847002384F82C301C
:1028000010BDFDD090F8382012B1028E934201DA4B
:102810000123F3E70323DFE790F82C30042B10B5F6
:10282000044624D10B7913BBB1F90630428E002B3C
:102830008286B0F88422C28618DA90F82D3090F89B
:102840003820013B9A4212DA0223D4F8B00284F80D
:102850002C3060B10368DB68984740B1D4F8B0020F
:1028600021460368BDE810409B68184700D110BDA1
:1028700090F83830002BFAD00323E6E7F8B5234B65
:1028800000254FF4807700F13C06036004230446E2
:10289000C56183855023878403631E23856280F886
:1028A0002E5080F838504387C0E90155C0E90355E0
:1028B000C0E905553046FEF799FF154BC4F89C5208
:1028C000C4F880320223A4F8A47284F8AC32C4F8AD
:1028D000A852A4F8AE52C4E9A155C4E9A355C4E96D
:1028E000A555C4E9AC5517F065F9214617F068F90C
:1028F000012304F52071204684F8243010F028FAD2
:102900002046314610F024FA2046F8BD7819020816
:1029100020520208418770473C30FFF717B808B5CE
:10292000B0F9443012B23C3003EBD373A1EB630136
:1029300009B2FEF755FA08BDB0F90820418E08B576
:1029400090F8383000F5207002FB1311002209B214
:10295000FEF75CFA08BD10B5044680F838103C302C
:10296000FEF7A4FF2046BDE81040FFF7E5BF90F852
:102970002C30042B19D1CA88438E9B1A4A8990F8AF
:10298000381013441BB2438621B9428F934201DDB4
:10299000428608E090F82D20013A914203D1428FFF
:1029A00052429342F4DBFFF7C7BF704738B590F847
:1029B0002E5004460E2D13D8828E0E230021284659
:1029C000524212B218F0D4F9A38E18446086204601
:1029D000FFF7B2FF94F82E30013384F82E3038BD63
:1029E000042380F82C30002380F82E304386EFE754
:1029F00038B590F82E5004460E2D12D80E23B0F99B
:102A000034200021284618F0B3F9A38E1B1A204663
:102A10006386FFF791FF94F82E30013384F82E304F
:102A200038BD042380F82C30002380F82E304386F4
:102A3000EFE738B590F82E5004460A2D14D8838E4F
:102A40000021028928461A440A2312B218F0A6FB74
:102A5000A38E1B1A20466386FFF76EFF94F82E3074
:102A6000013384F82E3038BD0423002280F82C3046
:102A700090F8383080F82E200133428680F83830C4
:102A8000FFF75AFF04F13C00FEF77AFFD4F8B402D6
:102A90000028E3D00368DB6898470028DED0D4F82C
:102AA000B402214603689B689847D7E738B590F889
:102AB0002E5004460A2D14D8838E00210289284600
:102AC000D21A0A2312B218F069FBA38E184460864A
:102AD0002046FFF731FF94F82E30013384F82E3072
:102AE00038BD0423002280F82C3090F8383080F86C
:102AF0002E20013B428680F83830FFF71DFF04F19D
:102B00003C00FEF74EFFD4F8B4020028E3D003687F
:102B1000DB6898470028DED0D4F8B4022146036869
:102B20009B689847D7E790F82C300BB9FFF73EBF6A
:102B3000012B01D1FFF75CBF022B01D1FFF779BF59
:102B4000032B01D1FFF7B2BF70470000074B10B550
:102B50000446036017F02EF8214617F061F804F1DF
:102B60003C00FEF715FE204610BD00BF7819020894
:102B700010B50446FFF7EAFF4FF42E7120461BF014
:102B8000D2FF204610BD0022028042808280C28097
:102B90007047036870B50446DB6A1546984723689A
:102BA000204629465B6EBDE8704018470D207047EF
:102BB0000E207047704710B5044638211BF0B3FF54
:102BC000204610BD38B50A4B04460A4D036040F854
:102BD000FC5F13F057FD204640F8D05F13F052FD24
:102BE0002046054B40F8843F13F030FE204638BDA8
:102BF0000C1A0208D05A0208F05A020810B504460E
:102C0000FFF7E0FF4FF4CC7120461BF08CFF20460D
:102C100010BD000008B5094B1B682BB9084BCF212C
:102C2000084A09481DF0A6F8084B02881B889A42FA
:102C300003D3074BD021034AF3E708BDB44E02206B
:102C4000B0320208F232020820330208B84E0220E5
:102C50007333020810B50446FFF7DCFF044B2288EB
:102C60001B6813F81220034B1B6853F8220010BD99
:102C7000B44E0220BC4E0220036873B51E6B04469E
:102C8000C38C01A80D46ADF80430FFF7E3FF0368DD
:102C9000DB6A9847291A3346204609B202B0BDE8DC
:102CA0007040184710B50446FFF7B4FF024B228866
:102CB0001B6853F8220010BD641800202DE9F04174
:102CC0004FF6FF73C78C04469F421CD000F12606C6
:102CD0003046FFF7BFFF036805463046D3F81C8037
:102CE000FFF798FF3046FFF7DDFF084B0246C4466A
:102CF0001B68284603EB47035978636BC1F38101D6
:102D0000BDE8F04160470020BDE8F081B44E0220EC
:102D1000C28C4FF6FF739A4210B5044609D0263094
:102D2000FFF7C0FF626B01462046BDE8104014F07B
:102D3000C9BA002010BD00002DE9F0474FF6FF731F
:102D4000C68C8CB004469E4288463DD000F12605D4
:102D50002846FFF77FFF0746002835D02846FFF7B3
:102D600059FF1B4B284694F830901B6803EB460331
:102D70005E78FFF74FFF94F83130C6F3010AC6F3CF
:102D800081068DF82C30134BE26AA16A8DF8216020
:102D900005AE1B68304607978DF820A08DF822906D
:102DA000CDE9091221469F6817F099FB2846FFF7E5
:102DB00079FF636BCDE9010307AB384600934346C7
:102DC00096E8060015F084FF0CB0BDE8F08700BF60
:102DD000B44E0220344E0220B0F5803F03464FF03F
:102DE00000002CBF4FF080424FF4804281188B428C
:102DF00024BF50185B1A92084FEA5000F6D1704772
:102E0000002808B505DA4042FFF7FAFF404240B219
:102E100008BDB0F5806F11DCB0F5357F09DD4043AA
:102E2000C0F58010FFF7D8FFFFF7EAFFC0F15A00A6
:102E3000EDE70330024BC0101856E9E70020E7E742
:102E4000E834020851EA000337B50C46154606D5AA
:102E5000114B40F24D31114A11481CF08BFF814259
:102E600007DD01462046FFF7EDFFC0F15A0003B031
:102E700030BD404301FB0100FFF7AEFF2860002892
:102E8000F5D0024601AB4FF48061204617F083FB7A
:102E9000FFF7B6FFEBE700BFC5330208D6330208E1
:102EA000083402082DE9F04F044687B0FEF78EFC87
:102EB00000252746A34B4FF6FF76DFF89C8204F1EE
:102EC0005809A56247F82C3B3846ADF81460FEF768
:102ED0007DFC05A93846C4F82C8004F58E7BA4F847
:102EE000526004F5B07A84F8546014F030FA484621
:102EF000ADF81460FEF76AFCC4F8588004F1840849
:102F000005A94846A4F87E6084F8806014F01FFA92
:102F1000404612F04DFF04F1D00305A9FF221846E8
:102F20000293ADF8146012F0D1F804F1FC032946C5
:102F3000FF221846039312F0B1F95846FEF746FCFB
:102F40004FF47F0280495046C4F84451C4F84821E8
:102F5000A4F84C51C4F81C11C4F85051A4F84261B3
:102F6000FEF734FC4FF47F0278493846C4F88C21D0
:102F70000122C4F8601105A984F824201E22C4F897
:102F80008851A4F89051A4F88661ADF8142014F08B
:102F9000DEF92A4629463846FDF722FF3946204603
:102FA0000FF0D6FE062205A94846ADF8142014F00D
:102FB000CEF9B4F96210B4F93620B4F96000521AAF
:102FC000618E02EBD27201EB6202B4F93410091A7D
:102FD000208E12B201EBD17100EB6101484609B2BB
:102FE000FDF7FEFE494620460FF0B2FE082205A975
:102FF0000298ADF8142012F051F83C222C21112037
:1030000019F062FB039B01464622184612F038F97C
:10301000B4F9363040460093B4F93220B4F9343074
:10302000B4F93010FDF7C4FEB4F98E30F6EE006A44
:10303000029907EE903AB4F98C30404607EE103A08
:10304000F8EEE77A4FF44E63B8EEC77A67EEA67AE9
:10305000C4F8BC304FF4487327EE267AFEEEED7AC2
:10306000C4F8C830BEEEED7AC4ED2E7A84ED2D7A28
:1030700013F00EFB40460F2112F0B6FE344B4146D2
:103080002046C4E9303504F5AA750FF061FE6423CB
:10309000304A0521284619F009FB58464FF00E0129
:1030A000C4F8505113F0C4FFB4F92621B4F93630F6
:1030B0005846B4F924119B1A628E03EBD373143A69
:1030C00002EB6302B4F934305B1A218E12B203EBC7
:1030D000D37301EB630109B2FDF782FEFF221146B3
:1030E000104619F0F1FA5946C4F8440120460FF091
:1030F0002FFE50464FF00F0113F09AFFB4F96811FC
:10310000B4F934305046B4F822215B1A218E3C3297
:1031100003EBD37312B201EB630109B2FDF760FE5A
:1031200051223C21172019F0CFFA5146C4F88801EA
:1031300020460FF00DFE636B2046A36007B0BDE88C
:10314000F08F00BF0C1A020874340208285E0208CF
:1031500080F1FFFF68340208B85F02087FB54B01B9
:10316000D0F8C42005460C46934201930DD000F1DF
:10317000840601AA02A8314613F0A2F8019B02A915
:103180003046C5F8C43017F064F904F174039FEDBC
:103190000F7ADFED0F6A052107EE903A0D4A05F52B
:1031A000AA70F8EEE77A67EE877A87EEA67AFDEEE8
:1031B000C77A17EE903AC5ED657A19F077FA05F5FA
:1031C0008E7004B0BDE8704017F0DFB80000C84250
:1031D000000068436834020813B50446D0F8B40010
:1031E000002300280193B8BF1F30A1EB6010D4F872
:1031F000B810002900B2B8BF1F314001A2EB611125
:1032000009B24FEA411127D4994201AA1EDBFFF708
:1032100019FE00F15A01019BB3F5C86F2CDBB429EC
:10322000C8BFA1F5B47101F19203B3F5927F23D821
:1032300074296FF073032046A8BF74219942B8BF68
:10324000194602B0BDE81040FFF788BF4942FFF7BA
:10325000F9FDC0F15A01DEE70029C0F1000001AA22
:1032600004DBFFF7EFFDC0F58771D4E74942FFF7B4
:10327000E9FD00F58771CEE702B010BDB1F90C2071
:10328000B1F90A10FFF7A8BF0B792BB9B1F90820E3
:10329000B1F90610FFF7A0BF70477047704700698B
:1032A00003681B6B1847A0F10400FFF7F8BF10B5C7
:1032B000044614211BF037FC204610BDA0F1040089
:1032C000FFF7F5BF0438704738B50D464031044666
:1032D000FEF748FA044B2046256103F10802283323
:1032E0002260636038BD00BF941A020870477047BF
:1032F0007047704770477047403870477047704755
:10330000C1867047704770477047704730B4446853
:103310000346C2689B68551004EB6200D20748BFA1
:10332000625930BC48BFD35818470346406830B193
:103330009A681AB9D86800F00100704701207047F8
:10334000C08E70470368D3F88030184790F8320079
:10335000704730B444680346C2689B68551004EB5C
:103360006200D20748BF625930BC48BFD3581847E3
:103370000346406830B19A681AB9D86800F0010075
:1033800070470120704730B444680346C2689B68A8
:10339000551004EB6200D20748BF625930BC48BFE9
:1033A000D35818470346406830B19A681AB9D868AC
:1033B00000F0010070470120704730B444680346B4
:1033C000C2689B68551004EB6200D20748BF62597F
:1033D00030BC48BFD35818470346406830B19A689C
:1033E0001AB9D86800F00100704701207047C06B1F
:1033F000FEF7C6B910B504460B46054A0521E43070
:1034000019F054F904F1AC00BDE8104016F0BDBF4E
:1034100068340208A0F14000ECE700BF10B5044694
:1034200048211BF080FB204610BD10B504464FF428
:1034300080711BF078FB204610BDA0F14000F4E73E
:1034400010B5044610211BF06EFB204610BD10B5D0
:10345000044610211BF067FB204610BD10B5044642
:1034600010211BF060FB204610BD10B50446102152
:103470001BF059FB204610BD0C23F7B500F5AC77C7
:10348000ADF800300E23044690F8815901AA694630
:103490003846ADF8043013F053FE092304F5C67620
:1034A00001AA6946ADF800300B233046ADF8043070
:1034B00013F046FE012384F87C3184F8B031002DEE
:1034C00056D10D2301AA69463846ADF80030ADF853
:1034D000043013F035FE84F87C51B4F8603138467E
:1034E00004F614271E33A4F86031B4F894311E3367
:1034F000A4F8943116F049FF304616F046FFB5FAAD
:1035000085F36A1E04F580565B09A91EE81E86F83D
:1035100025385342534184F8393A4B424B41454296
:10352000454184F8C53E002386F85D5004F5815579
:1035300084F8F1391835284616F027FF04F5C050F5
:1035400016F023FF384616F020FF04F56A6016F0E7
:103550001CFF04F6CC1016F018FF022386F8E4399D
:1035600096F82538BBB1012386F8E43903B0F0BDE5
:1035700094F88039013BAB42AFD10A2301AA6946D6
:103580003046ADF80030ADF8043013F0D9FD00231B
:1035900084F8B031A1E794F8394A2CB1384603B029
:1035A000BDE8F04001F050BC96F85D30002BDDD056
:1035B000284600F04AFD22462846124B0E2100F014
:1035C00039FD224628460F4B062100F036FD2246E3
:1035D00028460C4B082100F034FD2846094B2822D0
:1035E000172100F027FD2846064B2A22012100F072
:1035F00024FD044B26220321284603B0BDE8F040F9
:1036000000F01FBDD5AD010838B5044600F6142002
:103610000D4601F0FFFA04F5AC739D420AD104F5A2
:103620008053022204F5E87083F8E429BDE83840AD
:1036300002F0C0B804F5C6739D420AD104F5805368
:10364000022204F5E87083F8E429BDE8384002F06E
:103650002DB838BD90F8323070B504462BB1808E4D
:10366000E18E884202D20130A08670BD238FCA1835
:10367000904217D9002384F83230238716F09AFA43
:10368000214616F0CDFA606C0028EED00368DB68A6
:1036900098470028E9D0606C21460368BDE8704077
:1036A0009B681847658F401AA28F002180B2521B79
:1036B000256C12B2A847638F184484F82E00204668
:1036C00016F063FEA38EE28E0133218F9BB20A4473
:1036D0009342A386C9D9CDE70022C0E90122C0E9FF
:1036E0000322C0E90522C2614FF480728284014A3C
:1036F000026070474C35020810B50446FFF7ECFF36
:1037000000232046A36284F82C30012384F824305F
:10371000044B23604FF6FF73E385238684F8323031
:1037200010BD00BF105F020810B50446FFF7D4FFBC
:10373000064B4FF47F02204623604FF6FF73E3846D
:103740000023C4E90A32238610BD00BF285E0208A8
:10375000F8B5094F06460D46386811F015F90446CC
:10376000386811F011F9A91B00FB04F3B3FBF1F267
:1037700001FB12339819F8BD344E022010B590F8B1
:103780008129044632B904F5C6712046BDE81040CF
:10379000FFF73ABF90F88039013B934202D104F51C
:1037A000AC71F2E764210020FFF7D2FF3128F6DD8B
:1037B000E9E700002DE9F04F8FB0044617F012F949
:1037C000E14B002504F1E40623603833E56304F59A
:1037D0008079236404F14403DC4F04F5967818469D
:1037E0000793FFF789FF04F1780304F5C67A04F51F
:1037F000E87B18460893FFF797FF04F1AC031846DF
:103800000993FFF791FFD24B29460898C4F8AC30D2
:10381000D04BC4F8E050C4E93C34CF4BC4E93E354A
:1038200004F1F003E36613F003FCFF221146104697
:1038300018F04AFF2B46C94A0521C4F8A0003046BB
:1038400018F034FF0998C4F8E0604FF0010113F05C
:10385000EFFBFF224FF6FF761146104618F034FFBB
:10386000BF4BC4F8D400484603F108024433ADF816
:10387000346022602364FFF72FFF0DA94846C4F887
:103880000071A4F8266184F8286113F060FD4046B9
:10389000ADF83460FFF720FF0DA94046C4F82C7145
:1038A00004F58057A4F8526184F85461261D13F082
:1038B0004EFD04F5AC7318460593FFF71DFF504607
:1038C000FFF71AFFA74B5846C4E97034A64BC4E96A
:1038D000723501F08BFDA54BC4F8C859C4F8BC394A
:1038E000A34BC4F8C049C4F8C43904F6CC13184635
:1038F0000A93FFF719FF9F4B84F8FE59C4F8CC399F
:1039000004F61423C4F8005AC4F8105A18460B934E
:1039100001F024FB984BC4F89C5EC4F8903E974B92
:10392000C4F8944EC4F8983E04F56A6318460693AA
:10393000FFF7B8FA04F5815318331846049300F0E2
:1039400041FC04F5C0531846039300F025FF4FF0E7
:1039500002030DA9484687F8E4391C23C7F8EC593F
:10396000ADF8343013F0F3FC2A4629464846FDF7FB
:1039700037FA494630460FF0EBF91B230DA94046B4
:10398000ADF8343013F0E3FC2A46B4F90811404690
:10399000FDF726FA4146304604F5E0780FF0D8F9F5
:1039A0004FF00E020C230CA90598ADF834200DAA97
:1039B000ADF8303013F0C4FBB4F90621B4F90411AA
:1039C0000598FDF70DFA05993046C4F880810FF08F
:1039D000BFF909230DAA0CA9ADF830300B235046CE
:1039E000ADF8343013F0ACFBB4F806315046B4F8FF
:1039F0000A21B4F95C111A44B4F89631D21A12B201
:103A0000FDF7EEF951463046C4F8B4814FF0110885
:103A10000FF09EF90DA8B4F90891B4F804A1ADF81F
:103A2000348018F053FFB4F85E31A9EB0000B4F80D
:103A30006221AAF1070A00EBD0704FF012091A4474
:103A4000B4F892310AEB600158469B1A12B209B2DF
:103A50001BB200933C23FDF7ABF94B462A46584670
:103A6000ADF80080042101F0F3FC294658461323E9
:103A7000142201F0E5FD584617231822012101F018
:103A8000DFFD584615231622022101F0D9FD4A46D2
:103A9000434658460321DFF8E88001F0D1FD0823B2
:103AA00059463046C4F8843904F6BC13C4F8FC31D6
:103AB0000FF04EF90F230DAA0CA9ADF830301023EA
:103AC0000798ADF8343013F03BFBB8F80010022231
:103AD000B4F84C3003390798C91A09B2FDF780F9D8
:103AE000079930460FF034F9B4F91E2AB4F936318B
:103AF000B4F91C1A9B1AB4F832210B9803EBD37358
:103B000002EB6302B4F934315B1AB4F8301112B22B
:103B100003EBD37301EB630109B2FDF761F904F51F
:103B200069630B993046C4F8403A84F8395A0FF06B
:103B30000FF9B4F9AA2EB4F93631B4F9A81E9B1ABC
:103B4000B4F832211EE000BFD0350208B85F020889
:103B500074340208B8350208EF33000868340208EC
:103B6000D41A02081C360208093600083436020846
:103B7000793400084C360208D8360208CD3D0008DA
:103B8000284E0220069803EBD37302EB6302B4F9CC
:103B900034315B1AB4F8301112B203EBD37301EB7A
:103BA000630109B2FDF71CF906986FF02701FFF7D2
:103BB000D5FA0699304684F8C55E0FF0C9F8B7F912
:103BC0004220B4F93631B7F940109B1AB4F83221CB
:103BD000049803EBD37302EB6302B4F934315B1A3C
:103BE000B4F8301112B203EBD37301EB630109B2E5
:103BF000FDF7F6F80499304687F85D500FF0A8F805
:103C000003984FF040024FF03F0100F0CBFCB7F9B2
:103C10000A28B4F93631B7F908189B1AB4F83221DA
:103C2000039803EBD37302EB6302B4F934315B1AEC
:103C3000B4F8301112B203EBD37301EB630109B294
:103C4000FDF7CEF84FF4F0733C2229460398009319
:103C5000F02300F089FE0398282100F04DFD039821
:103C6000142100F068FD0399304687F825580FF0BD
:103C70006FF8B4F8301130230A98063114220093FB
:103C8000642309B2FDF794F8FF221146104618F09C
:103C90001BFD0A99C4F8F409304684F8F1590FF075
:103CA00057F8B4F89E30B8F800500DA8ADF834308D
:103CB000FEF7D0FF03686A3DDB6A2DB29847C0F576
:103CC00081722946089812B2FDF78AF851223C21E8
:103CD000172018F0F9FCB4F87C30B4F880100E22EC
:103CE000C4F8A0001944099800922223B4F97E2058
:103CF00009B2FDF75DF8D4F8A03008993046C4F851
:103D0000D4300FF025F8099930460FF021F840F231
:103D1000022320465946A7F8F0394FF0020387F8EE
:103D2000F239FFF7A9FB20460FB0BDE8F08F00BFC6
:103D300000F5805393F8E40958B993F8F00940B1BD
:103D400093F8F10928B193F8F209003818BF01205F
:103D50004000704708B506210020FFF7F9FC013844
:103D6000042897BF024B034803EB8003186D08BD7E
:103D7000D41A02086DB901082DE9F84300F5CF55B2
:103D800000F5CF5700F5CF5800F5805900260446BE
:103D900010350F3708F11C08C9F8E8692046FFF70D
:103DA000D9FFC82128616420FFF7D2FC45F8040F31
:103DB000454507F8016FF1D189F8E46904F6CC10A4
:103DC00084F8F169BDE8F84316F0DFBA10B504468F
:103DD000012100F6142000F075FF2046BDE81040D8
:103DE000FFF7CABF38B50021044600F6142000F0E2
:103DF00069FF012304F6CC154FF00D0184F8F13969
:103E0000FF23284684F8FA3913F012F95023A4F856
:103E1000023A94F8FE3923B915F0CCFE294615F084
:103E2000CFFE002394F8FA292846A4F8003AA4F813
:103E3000083A2823A4F8062AA4F8043A064BC4F842
:103E40000C3A012384F8FE3904F5805416F09DFAEB
:103E5000022384F8E43938BD55B101082DE9F04753
:103E600000F580560546D6F8EC290132C6F8EC2953
:103E7000FFF75EFF044668BB05F5CF584FF0020A16
:103E800008F11008C146D6F8E80959F8043F9842ED
:103E90001DDA67220021D9F80C709BB280B2B847B6
:103EA0002146024605F6142000F0C8FE2846FFF71A
:103EB0003FFF10B12846FFF795FF0134032CE2D1F4
:103EC000D6F8E8390133C6F8E839BDE8F08708F8D4
:103ED00004A0EBE70128F8D13C2392FBF3F103FBAC
:103EE0001126002EF1D105F5C054204600F020FC2B
:103EF00032280DDD1549204600F020FC1421204613
:103F000000F019FC31462046BDE8F04700F0F4BB54
:103F1000204600F00DFC064612216FF00500FFF769
:103F200017FC87190546BE420ADD0849204600F005
:103F300005FC690089B2204600F0FDFB3946E2E746
:103F40000349204600F0FAFBA9B2F4E771AD01087D
:103F50002FB601080F4B03F10802443310B5044695
:103F60000260036400F5C05000F0DAFA04F58150F5
:103F7000183000F047FA04F56A60FEF723FE04F6F5
:103F8000142000F0E3FD04F5E87001F0DFF92046AD
:103F900010BD00BFD41A0208A0F14000FFF7DABF3D
:103FA00010B50446FFF7D6FF41F60C2120461AF063
:103FB000BAFD204610BDA0F14000FFF7F1BF7047E9
:103FC00070B445680346C4689B68661005EB6400DE
:103FD000E40744BFAC59E35870BC18470346406837
:103FE00030B19A681AB9D86800F001007047012012
:103FF000704710B5044610211AF095FD204610BDFB
:10400000002310B5C0E90133C0E90333C0E905332B
:10401000C3610446054B0360054B4362FF2380F8F0
:10402000283013F094F9204610BD00BFB85F020895
:104030000001FFFFDC3001F02DBD00F5976001F0BD
:1040400029BD00F5C76001F025BD10B50446DC3080
:1040500001F088FD04F5976001F084FD04F5C76068
:10406000BDE8104001F07EBD0C291FD8012041F2AF
:10407000AA53884018421BD110F425601AD1022996
:104080001DD14FF4C871B2FBF1F301FB13239BB2B6
:1040900093B16421B2FBF1F301FB13239BB26BB12B
:1040A00012F0030F14BF1C201D2070470020704722
:1040B0001F2070471E2070471D2070471C2070472E
:1040C00070B5044600F5976001F09EFC054604F5C6
:1040D000C76001F099FC691C00F2DC72204689B2CD
:1040E000DC3492B2FFF7C0FF1C284FF010031DD143
:1040F00000222046114602F0C5F9102300220121BA
:10410000204602F0BFF9102300220221204602F0CF
:10411000B9F9204601F078FC1B284FDD284B14220A
:104120001B212046BDE8704001F0B4BC1D284FF0B3
:10413000FF024FF0000117D1204602F0A3F910232F
:1041400000220121204602F09DF9102300220221C5
:10415000204602F097F9204601F056FC1C282DDD80
:10416000174B14221C21DCE71E28204616D102F032
:1041700089F91023FF220121204602F083F9102340
:1041800000220221204602F07DF9204601F03CFC8D
:104190001D2813DD0A4B14221D21C2E702F072F91B
:1041A00020461023FF22012102F06CF92046102343
:1041B000FF220221BDE8704002F064B970BD00BF6B
:1041C000D5AD01082DE9F04F04468DB04FF0000940
:1041D000894A80464FF480734FF6FF7504F1580BFF
:1041E000838404F1840AC0F81C900BA9C0F82890BD
:1041F00004F1DC07ADF82C5004F59766C0E901998D
:10420000C0E90399C0E9059948F82C2B4046FFF70F
:10421000F7FE0BA95846ADF82C50FFF7F1FE0BA99D
:104220005046ADF82C50FFF7EBFE04F1B0030BA99C
:10423000ADF82C501846079304F5C765FFF7E0FE6C
:10424000384601F029FF304601F042FD284601F0D2
:104250003FFD6A4A0BA94046C4F8B827684AC4F82B
:10426000C497C4F8C0272122C4F8BC47ADF82C205D
:1042700013F06DF84A4649464046FCF7B1FD414609
:1042800020460EF065FD31221146104618F01CFA4A
:10429000FF2280468A2148464FF0200918F014FA80
:1042A000F52208901146104618F00EFA0B220990DC
:1042B0000D213846FCF794FD1423152213213846AE
:1042C000CDE9033212239C22CDE90131482331216B
:1042D00000930A2301F055FF412341463846CDE9BA
:1042E0000039DDE9082301F044FE3946204604F593
:1042F000F7670EF02DFD30460B224621FCF770FDCE
:10430000482310209C228121CDE9003030460A2329
:1043100001F02EFC4123414630460093CDF8049035
:10432000DDE9082301F024FB31462046C4F8247659
:104330000EF00EFD28460B22CF21FCF751FD112671
:10434000482328469C224F21CDE900360A2301F05C
:104350000FFC4123414628460093CDF80490DDE947
:10436000082301F005FB29462046C4F8A4770EF087
:10437000EFFC22230BA95846ADF82C3012F0E7FFD2
:104380000B2258460921FCF72BFD594620460EF01A
:10439000DFFC1F230BA95046ADF82C3012F0D7FFDD
:1043A000E28E5046B4F88E3009210B3AD21A12B27E
:1043B000FCF716FD514620460EF0CAFC0BA90798E3
:1043C000ADF82C9012F0C3FFB4F9BA300921B4F95A
:1043D00036200798D21A02EBD2725210033212B270
:1043E000FCF7FEFC204607990EF0B2FC636B2046FA
:1043F000A3600DB0BDE8F08F401B0208F036020844
:10440000C1400008084B10B50446036000F5C760C2
:1044100001F060FA04F5976001F05CFA04F1DC0049
:1044200001F07EFD204610BD401B020810B5044679
:10443000FFF7E8FF4FF4F96120461AF074FB2046BD
:1044400010BD80F82E10704790F82E0070470320A2
:10445000704702299EBF00EB8100C26483657047EC
:1044600002299ABF00EB8100C06C0020704702292E
:104470009ABF163150F821000020704702299EBFD4
:1044800000EB810042660367704702299ABF00EB88
:104490008100406E0020704702299ABF1C3150F8FD
:1044A0002100002070470000034B10B50446036054
:1044B00011F0E2FA204610BD0837020810B5044694
:1044C000FFF7F2FF7C2120461AF02DFB204610BD9D
:1044D000034B10B504460360FFF7E6FF204610BD0E
:1044E000A837020810B50446FFF7F2FF7C212046EA
:1044F0001AF019FB204610BD034B10B504460360AB
:10450000FFF7D2FF204610BD4838020810B5044618
:10451000FFF7F2FF7C2120461AF005FB204610BD74
:1045200038B50C4B04460C4D036000F5CE700560A9
:1045300012F0A8F804F5BE70C4F87C5112F0A2F88D
:1045400004F58070FFF7D8FF04F18400FFF7C0FF87
:10455000204638BDD01B0208D05A020810B50446C8
:10456000FFF7DEFF4FF4F27120461AF0DCFA204626
:1045700010BD000010B5044611F062FA084B204649
:1045800023600023C4E91333C4E91533C4E91733A6
:10459000C4E91933C4E91B33C4E91D3310BD00BF9E
:1045A000083702087FB500F12C050446ADF80C1061
:1045B00003A92846ADF8082012F0C9FE00222846BB
:1045C00004F15805114604F18406FCF709FC28465D
:1045D00002A912F0BCFEB4F96230B4F936202846C4
:1045E000B4F9341004F5BE75D21AB4F96030C91AA2
:1045F00002EBD27201EBD17142F34F0241F34F0152
:10460000FCF7EEFB24221821AE2018F05DF8FF2203
:104610000146284610F034FEB4F936300022304608
:1046200000931146B4F93430FCF7C2FBB4F93420DE
:10463000B4F9363002EBD272D4F8B40003EBD37382
:1046400052105B10B0EB421F4FEA42114FEA431386
:1046500003D1D4F8B820934204D03046C4E92D13D6
:1046600011F014FA2946304612F012F8002204F52F
:10467000CE7504F580761146104618F025F83C22D8
:104680000146284610F0FCFDB4F9363000223046D1
:1046900000931146B4F93430FCF78AFBB4F93420A6
:1046A000B4F9363002EBD272D4F8300103EBD37395
:1046B00052105B10B0EB421F4FEA42114FEA431316
:1046C00003D1D4F83421934204D03046C4E94C13CA
:1046D00011F0DCF92946304611F0DAFF2368B4F90D
:1046E000341020469B6B98472368B4F93610204657
:1046F000DB6B984704B070BDD0F8C0318B4210B569
:10470000044604DBD0F8BC318B42B8BF0B46D4F86A
:10471000CC219B1AC4F8D03115F04CFA214615F083
:104720004FFA012384F8D8310023A4F8DA3110BD00
:10473000D0F8CC017047A0F8DC117047C0F8E01148
:10474000704703682DE9F041DB6F05460C460026F3
:1047500098470746BE4204F1080404DB2846BDE83A
:10476000F04111F093B914ED017A314654ED027A1B
:104770002846F0EE476A2B68B0EE677A0136D3F828
:104780008080FEEEED6ABEEEED7A16EE903A17EE00
:10479000102AC047DEE700002DE9F0474FF4807390
:1047A0003A4D86B0044600260746838405F1080387
:1047B0004FF6FF78C6618662694604F1580AADF883
:1047C000008004F58079C0E90166C0E90366C0E9AC
:1047D000056647F82C3B3846FFF712FCADF8008021
:1047E00004F1840869465046FFF70AFC4046FFF78B
:1047F000C1FE274B05F1900EEC46C4F88430A83575
:10480000BEE80F00ACE80F009EE803008CE8030050
:1048100069464046FFF795FF4846FFF7ABFE1D4B44
:10482000EC46C4F800310FCDACE80F0095E803006A
:104830008CE8030069464846FFF783FF3146FF22B4
:1048400004F5BE7010F02AFDFF22314604F5CE704B
:1048500010F024FD0A2339462046A4F8DC310E4B23
:1048600084F8D861C4F8E0310EF072FA4946204667
:104870000EF06EFA414620460EF06AFA2046514686
:104880000EF066FA204606B0BDE8F087C81B0208A5
:10489000A83702084838020871AD01082DE9FF4128
:1048A000836B04464D01B3EB411F30D003680146D2
:1048B00068465B6F98472046A56311F0E7F82368C8
:1048C000214602A85B6F9847BDF90CE0BEF1000FCE
:1048D00018D0BDF90E70AFB1BDF90480BDF9082044
:1048E000BDF90A30B8F1000F04D0BDF906C0BCF123
:1048F000000F0FD1ADF80020ADF80230ADF804E0A4
:10490000ADF806702368694620461B69984704B0D5
:10491000BDE8F081BDF900001D46BDF902109042CE
:1049200006464044A8BF16468B4272443B44A8BF8B
:104930000D46614400B2ADF8006012B2ADF802500D
:1049400009B21BB29042ACBFC6EB0006C6EB020632
:104950009942ACBFC5EB0105C5EB0305ADF804609A
:10496000ADF80650CEE7000010B50446029807EEF9
:10497000101AC4F8CC11B8EEC77AC4E97130C01A65
:1049800007EE900A04F18400F8EEE76A07EE902A39
:10499000F8EEE77AC4E96F1277EEC77A86EEA77A67
:1049A000DFED127A84ED757A27EE277AFDEEC77A6D
:1049B00017EE901A1944FFF771FFD4F8CC31D4F8F0
:1049C000BC2104F5807094ED757A9B1A07EE903A3D
:1049D000D4F8C431F8EEE77A67EE877AFDEEE77A2D
:1049E00017EE901A1944FFF759FF10BD00000000A0
:1049F00038B590F8D8310446002B43D0B0F8DA012E
:104A0000B4F8DC3198423ED8D4F8E0510021B4F932
:104A1000D021A847D4F8CC31D4F8BC2105460344B2
:104A200094ED757A04F184009B1A07EE903AD4F85D
:104A3000C431F8EEE77A67EE877AFDEEE77A17EE93
:104A4000901A1944FFF72AFFD4F8CC3194ED757A07
:104A500004F580701D44D4F8BC31ED1AD4F8C4318B
:104A600007EE905AF8EEE77A67EE877AFDEEE77A7E
:104A700017EE901A1944FFF711FFB4F8DA31013339
:104A8000A4F8DA3138BD002384F8D831A4F8DA313B
:104A900015F090F8214615F0C3F8D4E973321344A9
:104AA000C4F8CC31EEE7704730B444680346C268BE
:104AB0009B68551004EB6200D20748BF625930BCB6
:104AC00048BFD35818470346406830B19A681AB9AE
:104AD000D86800F00100704701207047A0F8CE10A0
:104AE0007047B0F8CE0070470368D3F89430184789
:104AF00090F8CA00704710B5044610211AF013F858
:104B0000204610BD034B10B50446036000F058FB6F
:104B1000204610BDE838020810B50446FFF7F2FF42
:104B2000E821204619F0FFFF204610BD10B50446CD
:104B3000C06A50B10368DB68984730B1E06A21462B
:104B40000368BDE810409B68184710BD38B50F4B8F
:104B50004FF47D750446036000F588600C4B0360DC
:104B600011F090FD635960194C3D1B689847B5F5ED
:104B7000447FF7D14FF41D7563596019E83D1B68F8
:104B8000984715F1440FF7D1204638BD901C020814
:104B9000D05A020810B50446FFF7D8FF40F27C4116
:104BA000204619F0C0FF204610BD0000F8B500F106
:104BB000340706463846FEF72DF8134BB48E3846B8
:104BC0001B6813F81420114B1B6853F82250FEF792
:104BD00021F80F4B28461B6853F824702B68394680
:104BE0009B6A98472B6804463946DB6B28469847F2
:104BF00014FB00F42B683946E4B228465B6A9847F8
:104C0000044486F84140F8BDB44E0220BC4E022058
:104C10006418002038B500F1A40500F5577495F824
:104C2000CA303BB114F0C6FF294614F0F9FF002347
:104C300085F8CA30E835A542F1D138BD642ADFEDE8
:104C4000206A2DE9FF41A8BF642278234C25044641
:104C500017465A434B430E4607EE102A4D43B8EE13
:104C6000C77A05F557788044C7EE267A07EE103AE2
:104C7000D8F84020B8EEC77A77EE877AFDEEE77A6B
:104C800017EE903A5B01934201930ED0414602A881
:104C900001AA254411F014FB019B02A94046C5F866
:104CA0009C33D5F85C331B699847E823394603FBEE
:104CB0000640A43004B0BDE8F04100F0B3BA00BF34
:104CC0000000C8422DE9F04181F0010304460D4681
:104CD00000F1A407002680F8843055B14C2304F27B
:104CE0008132012120467343D15400223146FFF71F
:104CF000A5FF013638462946E83700F069FA032E49
:104D0000EBD10B3504F16000A4F89450FFF74EFF8F
:104D1000236820465B69BDE8F041184790F8CA3027
:104D20002DE9F041044643B1B0F8CC20B0F8CE10E4
:104D30008A4204D20132A0F8CC20BDE8F081B0F85C
:104D4000D030C81882421AD9002384F8CA30A4F897
:104D5000CC3014F02FFF214614F062FFD4F8E400A9
:104D60000028EAD00368DB6898470028E5D0D4F82B
:104D7000E40021460368BDE8F0419B681847521AD9
:104D8000B4F8D210D4F8DC6095B2B4F8D620521A38
:104D90002846002112B2B047B4F8D430B4F8D82075
:104DA00006460021D4F8E070D21A2846B4F8D03074
:104DB00012B2B847B4F8D430C218B4F8D230204692
:104DC000F11812B209B2FCF721F8B4F8CC30B4F8FB
:104DD000CE200133B4F8D0109BB20A449342A4F819
:104DE000CC30AAD9B0E708B5FFF798FF08BDF8B5F1
:104DF0001D4690F8CA3004460F46164623B914F0F3
:104E0000D9FE214614F0DCFE0023A4F8D670A4F8E5
:104E1000D860A4F8CC30A388A4F8D050A4F8D2303D
:104E2000E388A4F8D430069BC4F8DC30079BC4F8B0
:104E3000E030012384F8CA30B4F8CE302B4302D1DD
:104E40002046FFF76BFFF8BD2DE9F34100F1A40602
:104E5000044600250327B046B8F90A200135B4F905
:104E60003E304046B8F908109B1A628F03EBD373AB
:104E700002EB6302B4F93C305B1A218F12B203EBF0
:104E8000D37301EB6301B5FBF7F303EB4303EB1AB9
:104E9000013BC3EB031301EB4301D8F8003009B227
:104EA0009B6D98474046002108F1E80800F0BAF9E8
:104EB000032DD1D104F5C67804F51D773046732251
:104EC0007421254D00F097F940467722782100F0B3
:104ED00092F938467522762100F08DF9236BB4F8EB
:104EE000AA203046D21A1E23CDE9005512B2B4F9D9
:104EF000A810FFF77CFFA38F218F40469E22194404
:104F0000B4F89431C91A1E23CDE9005509B2FFF750
:104F10006EFF1E239E223846CDE900550025B4F9C8
:104F20003810FFF764FF3046294684F8815300F0BB
:104F30004FF92946404684F8CD5300F049F92946F7
:104F4000384684F8195400F043F92946204602B047
:104F5000BDE8F041FFF7B6BEEDB101084FF4807334
:104F6000914A2DE9F04F0446002500F1340B04F17D
:104F7000A40804F1600A264604F5577947462DED4A
:104F8000028B838485B0894B426303A9884A0360FE
:104F90004FF6FF73826580F85C30C5618562C5623B
:104FA0000565ADF80C30C0E90155C0E90355C0E90D
:104FB0000555C0E90E55C0E91055C0E912555846CF
:104FC00012F0C5F9504612F005FB3846E83700F0FC
:104FD00039F9784B07F81E5C47F8E83C27F81C5C69
:104FE00027F81A5C47F8045C4F45EED1384604F5C3
:104FF000886910F0DDFE04F56A7010F0D9FE04F542
:105000007D7010F0D5FE4FF6FF73FF2203A94846CE
:10501000ADF80C3010F05AF8674B03A95846C4F8A5
:105020006C34B6EE008A654BC4F878540025C4F899
:1050300074341E23C4F87044ADF80C3012F087F9B4
:105040000E2258461146FBF7CBFE594620460DF07E
:105050007FFE0623504603AAADF80830072302A9B5
:10506000ADF80C3012F06CF8B4F96A205046B4F97F
:105070003E30B4F968109B1A628F03EBD37302EBD6
:105080006302B4F93C305B1A218F12B203EBD37385
:1050900001EB630109B2FBF7A3FE04F26C43FF22AC
:1050A000C4F888301146104617F00EFBFF22C4F8F2
:1050B00098001146104617F007FB5146C4F89C00B3
:1050C00020460DF045FE082303A94846ADF80C30F4
:1050D0004FF4487A0FF0E2FF6723236306F5577712
:1050E000D6F85C33B4F93E2038460092B4F93A2041
:1050F000D3F828B0B4F93810B4F93C30D847B6F931
:1051000066334946384607EE903AB6F9643307EEFF
:10511000103AF8EEE77A236BB8EEC77AC6F8A0A388
:1051200067EE887A5B0127EE087AC6F89433FEEEC4
:10513000ED7AD6F85C33BEEEED7A5B6EC6EDE47ABE
:1051400086EDE37A98470F21384610F04DFE002394
:105150003946204686F88133C6E9E65505F570657F
:105160000DF0F6FD4C36B5F5345FB7D1414620461B
:105170000DF0EEFD04F5C67120460DF0E9FD04F5D5
:105180001D7120460DF0E4FDA38F20461C332381C2
:10519000E38F1C336381FFF757FE204605B0BDEC5B
:1051A000028BBDE8F08F00BFB85F0208901C0208B8
:1051B0000001FFFFE8380208883902082D4B00087B
:1051C000704710B50446CC2119F0ADFC204610BD47
:1051D00013B500F15C0461B1C38D204601A9ADF89F
:1051E000043012F0B4F8204602B0BDE8104015F0CB
:1051F000CCB8838DF1E710B504468185C2850021C6
:10520000FFF7E6FFB4F93810B4F96430042204F172
:105210005C00C91A01EBD17141F34F01FBF7E0FDCE
:1052200010BD000010B504460B46054A0521C030EC
:1052300017F03CFA04F18800BDE8104015F0A5B85D
:10524000683402082DE9F043044685B0FCF7BEFA45
:10525000002526463A4B4FF6FF77DFF8EC8004F145
:105260005C09A56246F8303B3046ADF80C70FCF79F
:10527000ADFA03A93046C4F83080A4F8567084F81B
:10528000587012F064F84846ADF80C70FCF79EFABE
:10529000C4F85C8004F1880803A94846A4F8827029
:1052A00084F8847012F053F84046FCF78FFA4FF4FC
:1052B0007F0303A93046C4F8B430224BA4F8AE7083
:1052C000C4F888301D23C4F8B050A4F8B850C4F80E
:1052D000BC50ADF80C3012F03AF82A462946304658
:1052E000FBF77EFD314620460DF032FD4946204653
:1052F0000DF02EFD40464FF00A0111F099FE04F129
:10530000C003FF22C4F8BC301146104617F0DCF988
:105310000E232522C4F8B0001221404600931E231C
:10532000FBF746FD414620460DF012FD204629467A
:10533000FFF778FFA36B2046A36005B0BDE8F083BC
:10534000201D020874340208B85F020838B5074B04
:1053500004464FF4DE65036063596019C03D1B6865
:10536000984715F1900FF7D1204638BDB01D0208BF
:10537000704730B444680346C2689B68551004EB1C
:105380006200D20748BF625930BC48BFD3581847A3
:105390000346406830B19A681AB9D86800F0010035
:1053A00070470120704710B50446102119F0BBFB6F
:1053B000204610BD10B50446FFF7C8FF40F2EC715F
:1053C000204619F0B0FB204610BD10B50446C06A57
:1053D00050B10368DB68984730B1E06A2146036842
:1053E000BDE810409B68184710BD000000234FF433
:1053F000807270B5C0E90133C0E90333C0E90533F9
:10540000C3610546836204460E4B00F5F66682844E
:1054100045F8303B2846C0350DF032FBB542F9D196
:105420000A2200232046C4F8E047C4F8B427064AFD
:1054300084F8B037C4F8DC27044AC4F8E837C4F865
:10544000E42770BDB01D0208903A0208CB53000853
:105450008A422DE9F34104461546ADF8043005DBD8
:10546000734B2021734A74481AF084FC0A2903DD27
:10547000724B21216F4AF6E7102380F8B017C0273E
:1054800004F2DC76C0F8C43701A817F01FFAC4F89C
:10549000BC0701A817F052FAC4F8D00708A817F003
:1054A00015FAC4F8C00708A817F048FAB4F908308C
:1054B000D4F8C017C4F8C8075A1A84F8B157EDB227
:1054C00002EBD2727D4309B25210C4F8D427B4F96A
:1054D0000A20121A02EBD2725210C4F8B827D4F87C
:1054E000BC279B1A03EBD3735B10C4F8CC37D4F8FA
:1054F000D037C01A00EBD0704010C4F8D80705F1BF
:105500003000254420442B6B30259B6B984794F842
:10551000B137B4F9C81717FB035007FB03431B6BE4
:105520002044DB6B984794F8B137B4F9B82717FBE0
:10553000035007FB0343B4F9D4171B6B20445B6B88
:10554000984794F8B137204607FB034217FB0351F5
:10555000C2F8EC60214423685B6E984794F8B187E9
:1055600008EB480504EB8515A5F1C007B8F1000F5D
:1055700010D194F8B15705F1010805EB450504EB8E
:10558000851594F8B03705F1C007434528DC02B013
:10559000BDE8F081903D3B6BB4F9BC1708F1FF38D2
:1055A00028469B6B98473B6B2846B4F9D017DB6BBA
:1055B00098477B8FB7F8F6202846B4F9CC17D21A53
:1055C000D4F8C437D21A3B6B12B25B6B9847C7F85A
:1055D000EC602368294620463D465B6E9847C3E74A
:1055E000F0353B6BB4F9BC1708F1010828469B6BFA
:1055F00098473B6B2846B4F9D017DB6B984737F8D0
:10560000863C37F88A2C2846B4F9CC171A44D4F8CB
:10561000C4371A443B6B12B25B6B9847C7F8EC6017
:105620002368294620463D465B6E9847A9E700BFA0
:1056300098390208C03902080C3A0208693A02088F
:10564000F7B5C024ADF8002001AAADF804306143DD
:105650004518303144186946B5F938702046B5F917
:105660003A600DF0B7FA2B6B394620469B6B984792
:105670002B6B31462046DB6B03B0BDE8F04018478A
:1056800070B5044600F13005002694F8B037B342F7
:1056900001DC002070BD2B682846C035D3F8A4304B
:1056A00098470028F6D10136EFE700002DE9F04FCA
:1056B00089B00546FFF7E4FF074690B995F8B03783
:1056C00095F8B127013B9A420BD0A846384E814647
:1056D00095F8B037BB4207DC95F8B137013385F850
:1056E000B13709B0BDE8F08FB8F9363008F13000B5
:1056F000B8F93AE0D5F8C42713EB0E0FB8F836C066
:1057000094B2B8F934100CD5ACEB0402D8F83030B0
:10571000A2EB0E029B6D12B29847013708F1C00848
:10572000D6E7A3EB0E039B1AB5F90A209342EBDCF4
:1057300095F8B1B7B5F8B4E70BF10103BB4215D149
:10574000D5F8C837D5F8D8271C441BB2121B002443
:1057500000936244CDE90566CDE90366CDE901E435
:10576000B5F9C03712B20DF05FF9D6E7D5F8D027FA
:10577000BB45B5F9BC3714440FFA82FAA4B20DD177
:10578000D5F8D8271444ACEB04020024CDE9056613
:10579000CDE903660294CDE900AEE3E7ACEB040289
:1057A000CDF80890CDE90566CDE90366F3E700BFC3
:1057B0009BB501082DE9F04F8DB00446FFF760FF5F
:1057C000064668B994F8B13753B12746404D94F86E
:1057D000B037B34207DC94F8B137013B84F8B137F6
:1057E0000DB0BDE8F08FB7F9362007F13008B4F9F5
:1057F0000AE0D4F8C4079645B7F836C083B2B7F9C3
:1058000034A0B7F93A100BDA0CEB010240465146CE
:105810001A443B6B12B29B6D98470136C037D6E7EE
:1058200002EB4102C242EFD494F8B1E70EF1FF322D
:10583000B2422BD1D4F8C82703EB020BD4F8D837E7
:10584000ABEB030BE3440FFA8BF34FF0110B09930F
:105850000AA8ADF828B017F039F881460BA8ADF8C2
:105860002CB017F06BF8002200B202920FFA89F305
:10587000CDE90555CDE90355B4F8B4270090019260
:10588000099A514640460DF0CFF8C6E7D4F8D00744
:10589000B64503EB000292B20AD1D4F8D83702EB36
:1058A000030BE3440FFA8BF34FF0120B0993CFE78E
:1058B0000020B7F938306244029012B2CDE90555A4
:1058C000CDE90355B4F8B407CDE90010D9E700BF1E
:1058D0009BB50108704770470368D3F880301847BC
:1058E00090F832007047704730B444680346C2688D
:1058F0009B68551004EB6200D20748BF625930BC68
:1059000048BFD35818470346406830B19A681AB95F
:10591000D86800F00100704701207047C1867047C9
:10592000C08E704710B50446502119F0FCF820468F
:1059300010BD10B50446102119F0F5F8204610BD31
:1059400010B504464FF4C07119F0EDF8204610BDB3
:1059500090F82C20022A0AD18A8909890368521AF0
:10596000B0F96210D3F88C3001FA82F11847704711
:1059700070B496B2C0F8841089B2B142DDE9035424
:105980001BD0C0F8503121B2C38EC0F8585113FA61
:1059900085F3A0F83211A0F8B610A0F8B230B0F834
:1059A0006230C0F800215B1BA0F8DE30012380F8D4
:1059B000D1305C3070BC14F0E8BC0023F7E7000085
:1059C00070B50546D0F86001B5F96210D5F85C41B4
:1059D0002B680C1BD3F89060041B0A4B94FBF0F26D
:1059E00000FB12440A22002CD8BF2418001B84425A
:1059F000ACBF091A09192846B047012385F82C3095
:105A000070BD00BFD5AD0108B0F96220D0F85C319F
:105A1000D0F860019B1A93FBF0F0704773B5044611
:105A2000084694F82C3073B90B68DB6F984718BBA5
:105A300004F1D800FFF750FFF0B9204602B0BDE8EE
:105A40007040FFF7BDBF012B4FF0030384F82C30EB
:105A500012D1D4F86C0178B10368DB68984758B16B
:105A6000D4F86C51204621462B689E68FFF7CCFF86
:105A700001AA01902846B04702B070BD0A68D0F86C
:105A800064319A4201DD0B6003E0D0F868319A423C
:105A9000F9DB704773B515461E46D0E9573202FB55
:105AA000113301A90193FFF7E9FF036835B9D3F872
:105AB0008C30019902B0BDE870401847D3F890408F
:105AC00000223346019980F82C20A4462A4602B0D1
:105AD000BDE87040604737B5019101A9FFF7CEFFDF
