:020000040800F2
:1000000000000520451B0008611A0008631A00085B
:10001000651A0008671A0008691A00080000000045
:10002000000000000000000000000000817F0008C8
:100030006B1A00080000000021800008858000087D
:10004000951B0008951B0008951B0008951B0008D0
:10005000951B0008951B0008951B0008951B0008C0
:10006000951B0008951B0008951B0008951B0008B0
:10007000951B0008951B0008951B0008951B0008A0
:10008000951B0008951B0008951B0008951B000890
:10009000951B0008951B0008951B0008951B000880
:1000A000951B0008951B0008951B0008951B000870
:1000B000951B0008951B0008951B0008951B000860
:1000C000951B0008951B0008951B0008951B000850
:1000D000951B0008951B0008951B0008951B000840
:1000E000951B0008951B0008951B0008951B000830
:1000F000951B0008951B0008951B0008951B000820
:10010000951B0008951B0008951B0008951B00080F
:10011000951B0008951B00086D1A0008951B000828
:10012000951B0008951B0008951B0008951B0008EF
:10013000951B0008951B0008951B0008951B0008DF
:10014000951B0008951B0008951B0008951B0008CF
:10015000951B0008951B0008951B0008951B0008BF
:10016000951B0008951B0008951B0008951B0008AF
:10017000951B0008951B0008951B00080000000057
:10018000951B0008951B0008951B0008951B00088F
:10019000951B0008951B0008951B0008951B00087F
:1001A000791A0008951B0008851A0008951B00089D
:1001B000951B0008951B0008951B0008951B00085F
:0801C000951B0008951B0008C7
:1001D00010B5054C237833B9044B13B10448AFF381
:1001E00000800123237010BD2401002000000000C6
:1001F000A802030808B5034B1BB103490348AFF33A
:10020000008008BD0000000028010020A8020308AB
:1002100001F0FF01102A2BDB10F0070F08D010F8B7
:10022000013B013A8B422DD010F0070F42B3F6D1BB
:10023000F0B441EA012141EA014122F007047FF0D4
:1002400000070023F0E80256083C85EA010586EA2B
:10025000010685FA47F5A3FA87F586FA47F6A5FA67
:1002600087F68EB9EED1F0BC01F0FF0102F0070273
:1002700032B110F8013B013A83EA010313B1F8D11E
:100280000020704701387047002D06BF35460338FF
:10029000073815F0010F07D1013015F4807F02BF38
:1002A000013015F4C03F0130F0BC0138704700BF89
:1002B00081F0004102E000BF83F0004330B54FEA17
:1002C00041044FEA430594EA050F08BF90EA020F84
:1002D0001FBF54EA000C55EA020C7FEA645C7FEA17
:1002E000655C00F0E2804FEA5454D4EB5555B8BF3A
:1002F0006D420CDD2C4480EA020281EA030382EAAB
:10030000000083EA010180EA020281EA0303362D3C
:1003100088BF30BD11F0004F4FEA01314FF4801C0F
:100320004CEA113102D0404261EB410113F0004F21
:100330004FEA03334CEA133302D0524263EB4303D8
:1003400094EA050F00F0A780A4F10104D5F1200E76
:100350000DDB02FA0EFC22FA05F2801841F10001D1
:1003600003FA0EF2801843FA05F359410EE0A5F1A5
:1003700020050EF1200E012A03FA0EFC28BF4CF0D6
:10038000020C43FA05F3C01851EBE37101F000458C
:1003900007D54FF0000EDCF1000C7EEB00006EEB99
:1003A0000101B1F5801F1BD3B1F5001F0CD3490823
:1003B0005FEA30004FEA3C0C04F101044FEA44527A
:1003C00012F5800F80F09A80BCF1004F08BF5FEA01
:1003D000500C50F1000041EB045141EA050130BDE1
:1003E0005FEA4C0C404141EB0101013C28BFB1F5F3
:1003F000801FE9D291F0000F04BF01460020B1FA3E
:1004000081F308BF2033A3F10B03B3F120020CDA10
:100410000C3208DD02F1140CC2F10C0201FA0CF0EE
:1004200021FA02F10CE002F11402D8BFC2F1200C53
:1004300001FA02F120FA0CFCDCBF41EA0C01904009
:10044000E41AA2BF01EB0451294330BD6FEA040452
:100450001F3C1CDA0C340EDC04F11404C4F120023D
:1004600020FA04F001FA02F340EA030021FA04F34F
:1004700045EA030130BDC4F10C04C4F1200220FAA6
:1004800002F001FA04F340EA0300294630BD21FAE4
:1004900004F0294630BD94F0000F83F4801306BFAA
:1004A00081F480110134013D4EE77FEA645C18BF9E
:1004B0007FEA655C29D094EA050F08BF90EA020F35
:1004C00005D054EA000C04BF1946104630BD91EA2D
:1004D000030F1EBF0021002030BD5FEA545C05D130
:1004E0004000494128BF41F0004130BD14F580046F
:1004F0003CBF01F5801130BD01F0004545F0FE41E3
:1005000041F470014FF0000030BD7FEA645C1ABF17
:10051000194610467FEA655C1CBF0B46024650EA4E
:10052000013406BF52EA033591EA030F41F400217A
:1005300030BD00BF90F0000F04BF0021704730B500
:100540004FF4806404F132044FF000054FF00001D5
:1005500050E700BF90F0000F04BF0021704730B596
:100560004FF4806404F1320410F0004548BF40426B
:100570004FF000013EE700BF42004FEAE2014FEAC0
:1005800031014FEA02701FBF12F07F4393F07F4F9B
:1005900081F06051704732F07F4208BF704793F09E
:1005A0007F4F04BF41F40021704730B54FF46074B1
:1005B00001F0004521F000411CE700BF50EA0102B4
:1005C00008BF704730B54FF000050AE050EA01025D
:1005D00008BF704730B511F0004502D5404261EBCD
:1005E00041014FF4806404F132045FEA915C3FF40E
:1005F000D8AE4FF003025FEADC0C18BF03325FEAAB
:10060000DC0C18BF033202EBDC02C2F1200300FA5B
:1006100003FC20FA02F001FA03FE40EA0E0021FA80
:1006200002F11444BDE600BF70B54FF0FF0C4CF46E
:10063000E06C1CEA11541DBF1CEA135594EA0C0F20
:1006400095EA0C0F00F0DEF82C4481EA030621EA5B
:100650004C5123EA4C5350EA013518BF52EA033596
:1006600041F4801143F4801338D0A0FB02CE4FF048
:100670000005E1FB02E506F00042E0FB03E54FF078
:100680000006E1FB03569CF0000F18BF4EF0010E70
:10069000A4F1FF04B6F5007F64F5407404D25FEA6C
:1006A0004E0E6D4146EB060642EAC62141EA55511F
:1006B0004FEAC52040EA5E504FEACE2EB4F1FD0C61
:1006C00088BFBCF5E06F1ED8BEF1004F08BF5FEADF
:1006D000500E50F1000041EB045170BD06F0004691
:1006E00046EA010140EA020081EA0301B4EB5C043E
:1006F000C2BFD4EB0C0541EA045170BD41F4801136
:100700004FF0000E013C00F3AB8014F1360FDEBF5A
:10071000002001F0004170BDC4F10004203C35DA36
:100720000C341BDC04F11404C4F1200500FA05F3B9
:1007300020FA04F001FA05F240EA020001F000425A
:1007400021F0004110EBD37021FA04F642EB0601D0
:100750005EEA430E08BF20EAD37070BDC4F10C04FA
:10076000C4F1200500FA04F320FA05F001FA04F2BE
:1007700040EA020001F0004110EBD37041F10001AA
:100780005EEA430E08BF20EAD37070BDC4F12005B5
:1007900000FA05F24EEA020E20FA04F301FA05F21D
:1007A00043EA020321FA04F001F0004121FA04F2C5
:1007B00020EA020000EBD3705EEA430E08BF20EA95
:1007C000D37070BD94F0000F0FD101F000464000CF
:1007D00041EB010111F4801F08BF013CF7D041EA51
:1007E000060195F0000F18BF704703F00046520055
:1007F00043EB030313F4801F08BF013DF7D043EA26
:100800000603704794EA0C0F0CEA135518BF95EADB
:100810000C0F0CD050EA410618BF52EA4306D1D162
:1008200081EA030101F000414FF0000070BD50EA81
:10083000410606BF1046194652EA430619D094EA0B
:100840000C0F02D150EA013613D195EA0C0F05D1F5
:1008500052EA03361CBF104619460AD181EA030149
:1008600001F0004141F0FE4141F470014FF0000001
:1008700070BD41F0FE4141F4780170BD70B54FF09C
:10088000FF0C4CF4E06C1CEA11541DBF1CEA13551C
:1008900094EA0C0F95EA0C0F00F0A7F8A4EB0504FE
:1008A00081EA030E52EA03354FEA013100F08880F5
:1008B0004FEA03334FF0805545EA131343EA1263BE
:1008C0004FEA022245EA111545EA10654FEA002673
:1008D0000EF000419D4208BF964244F1FD0404F52C
:1008E000407402D25B084FEA3202B61A65EB030588
:1008F0005B084FEA32024FF480104FF4002CB6EB45
:10090000020E75EB030E22BFB61A754640EA0C00C4
:100910005B084FEA3202B6EB020E75EB030E22BF04
:10092000B61A754640EA5C005B084FEA3202B6EB45
:10093000020E75EB030E22BFB61A754640EA9C0004
:100940005B084FEA3202B6EB020E75EB030E22BFD4
:10095000B61A754640EADC0055EA060E18D04FEA92
:10096000051545EA16754FEA06164FEAC30343EA32
:1009700052734FEAC2025FEA1C1CC0D111F4801FFF
:100980000BD141EA00014FF000004FF0004CB6E7F8
:1009900011F4801F04BF01430020B4F1FD0C88BF97
:1009A000BCF5E06F3FF6AFAEB5EB030C04BFB6EBA2
:1009B000020C5FEA500C50F1000041EB045170BD95
:1009C0000EF0004E4EEA113114EB5C04C2BFD4EBC2
:1009D0000C0541EA045170BD41F480114FF0000E46
:1009E000013C90E645EA060E8DE60CEA135594EAC2
:1009F0000C0F08BF95EA0C0F3FF43BAF94EA0C0FC5
:100A00000AD150EA01347FF434AF95EA0C0F7FF439
:100A100025AF104619462CE795EA0C0F06D152EA8D
:100A200003353FF4FDAE1046194622E750EA410671
:100A300018BF52EA43067FF4C5AE50EA41047FF482
:100A40000DAF52EA43057FF4EBAE12E74FEA4102E5
:100A5000B2F1E04324BFB3F5001CDCF1FE5C0DD91C
:100A600001F0004C4FEAC0024CEA5070B2F1004F66
:100A700040EB830008BF20F00100704711F0804F69
:100A800021D113F13872BCBF01F00040704741F42E
:100A900080114FEA5252C2F11802C2F1200C10FA32
:100AA0000CF320FA02F018BF40F001004FEAC12316
:100AB0004FEAD32303FA0CFC40EA0C0023FA02F3BA
:100AC0004FEA4303CCE77FEA625307D150EA013390
:100AD0001EBF4FF0FE4040F44000704701F0004060
:100AE00040F0FE4040F40000704700BF7BB972B98F
:100AF0000029BEBF00204FF0004106E008BF0028DB
:100B00001CBF6FF000414FF0FF3000F0B5B9ADF100
:100B1000080C6DE904CE002909DB002B1ADB00F07C
:100B20004DF8DDF804E0DDE9022304B070474042EF
:100B300061EB4101002B1BDB00F040F8DDF804E025
:100B4000DDE9022304B0404261EB4101524263EB14
:100B500043037047524263EB430300F02FF8DDF884
:100B600004E0DDE9022304B0404261EB410170473B
:100B7000524263EB430300F021F8DDF804E0DDE9C5
:100B8000022304B0524263EB4303704753B94AB99E
:100B9000002908BF00281CBF4FF0FF314FF0FF3085
:100BA00000F06AB9ADF1080C6DE904CE00F006F86A
:100BB000DDF804E0DDE9022304B070472DE9F047D9
:100BC000089D0C46002B4ED194468C458646B2FAC1
:100BD00082F262D94AB1C2F12003914020FA03F3B4
:100BE0000CFA02FC194300FA02FE4FEA1C471FFAF6
:100BF0008CF6B1FBF7F44FEA1E4307FB141143EAEE
:100C0000014304FB06F199420AD91CEB030304F1EA
:100C1000FF3080F01281994240F20F81023C634420
:100C2000591A1FFA8EF3B1FBF7F007FB101143EAD4
:100C3000014300FB06F69E420AD91CEB030300F1B8
:100C4000FF3180F0FC809E4240F2F980634402381C
:100C50009B1B40EA044000211DB1D3400022C5E99E
:100C60000032BDE8F0878B4205D90DB1C5E900011E
:100C700000210846F5E7B3FA83F1002946D1A342E3
:100C800002D39042C0F0F080861A64EB0303012087
:100C9000002DE6D0C5E90063E3E7002A40F090802C
:100CA000A1EB0C044FEA1C481FFA8CF70121B4FB9E
:100CB000F8F64FEA1E4308FB164443EA044307FBD9
:100CC00006F0984208D91CEB030306F1FF3402D268
:100CD000984200F2CD8026461C1A1FFA8EF3B4FB10
:100CE000F8F008FB104443EA044300FB07F79F4277
:100CF00008D91CEB030300F1FF3402D29F4200F23B
:100D0000B0802046DB1B40EA0640A5E7C1F1200683
:100D10008B4022FA06F71F4320FA06FC04FA01F37F
:100D200043EA0C03F44000FA01F8380C4FEA134987
:100D3000B4FBF0FE1FFA87FC00FB1E4449EA0444A2
:100D40000EFB0CF9A14502FA01F20AD93C190EF189
:100D5000FF3A80F08480A14540F28180AEF1020E1E
:100D60003C44A4EB09041FFA83F9B4FBF0F300FB45
:100D7000134449EA044403FB0CFCA44507D93C197D
:100D800003F1FF3067D2A44565D9023B3C4443EAF6
:100D90000E40A0FB0293A4EB0C049C42CE469C4662
:100DA00051D34ED055B1B8EB0E0364EB0C0404FAEA
:100DB00006F6CB401E43CC40C5E90064002150E755
:100DC000C2F1200320FA03F10CFA02FC24FA03F327
:100DD00094400C434FEA1C4800FA02FE1FFA8CF7BD
:100DE000B3FBF8F008FB1031230C43EA014300FB8E
:100DF00007F1994208D91CEB030300F1FF362CD20E
:100E000099422AD9023863445B1AA4B2B3FBF8F1C1
:100E100008FB113344EA034401FB07F3A34208D95A
:100E20001CEB040401F1FF3613D2A34211D902399D
:100E30006444E41A41EA004139E70446F0E6084612
:100E400006E7C845AED2B9EB020E63EB070C0138DA
:100E5000A8E73146EDE7034699E73046D4E7D646A2
:100E60007FE7634402384DE70646234608460FE70E
:100E7000023E634430E700BF704700BF01490020D5
:100E800008F07CBA4120000808B5642006F086FC12
:100E9000FBE7000010B594B01022002102240AA83C
:100EA0002EF0C4FA1422002103A82EF0BFFA1D4B25
:100EB000192108A81A6C42F080521A641B6C03F0C6
:100EC00080530193019B184B1A6842F440421A6008
:100ED00001221B6803F440430293029B4FF48033CA
:100EE000CDE908234FF48003CDE90E434FF4D873C6
:100EF000CDE91244CDE9101305F092F804F02EFD6F
:100F00000F2300200721CDE903344FF4A053CDE98E
:100F100005034FF4805303A8079305F069FA14B052
:100F200010BD00BF00380240007000402DE980482D
:100F3000A1B010220021012513A84FF0104B2EF074
:100F400075FA002403F070FCC84B13A8ADF84C50A0
:100F50001694CDE914B303F085FC172313A88DF87C
:100F60004D508DF854308DF85A5003F07BFC04201E
:100F700003F068FCBFF34F8FBFF36F8FBC4AC2F81A
:100F80005042BFF34F8FBFF36F8F536943F4003369
:100F90005361BFF34F8FBFF36F8FC2F88440BFF32D
:100FA0004F8FD2F8803043F6E074C3F3C900C3F327
:100FB0004E335B0103EA0406014646EA81750139B6
:100FC000C2F86052F9D2203B13F1200FF2D1BFF3E7
:100FD0004F8F536943F480335361BFF34F8FBFF397
:100FE0006F8F03F087FB0024FFF754FF14220021CA
:100FF00013A82EF01BFA9F4B10219F481A6B012655
:1010000010274FF0030942F010024FF040089B4DAB
:101010004FF0040A1A631A6BDFF894B202F0100260
:101020000192019A1A6B42F002021A631A6B02F0E3
:1010300002020292029A1A6B42F001021A631A6BC0
:1010400002F001020392039A1A6B42F040021A6303
:101050001A6B02F040020492049A1A6B42F4007276
:101060001A631A6B02F400720592059A1A6B42F029
:1010700008021A631A6B02F008020692069A1A6BAB
:1010800042F480621A631A6B02F480620792079A34
:101090001A6B42F020021A631A6B02F020020892C7
:1010A000089A1A6B42F480721A631A6B02F4807207
:1010B0000992099A1A6B42F080021A631A6B02F0C5
:1010C00080020A920A9A1A6B42F004021A63002202
:1010D0001B6B03F004030B930B9B03F00FFF012228
:1010E0000821674803F00AFF01224FF48051654848
:1010F00003F004FF0022C021634803F0FFFE00223A
:101100004021624803F0FAFE13A95B48CDE9154976
:10111000CDE9137603F06EFD082313A95848CDE9F5
:101120001336CDE9154403F065FD4FF4805313A940
:101130005448CDE91336CDE9154403F05BFDC022D8
:1011400013A95148CDE91326CDE9154903F052FD05
:1011500013A94E48CDE91386CDE9154903F04AFDA0
:101160004B484C4A848002600662C0E9054403F0A3
:10117000A5FB494A2846C5E90024C5E90244C5E95A
:101180000A44C5E90C4403F036FC31462846434D79
:1011900003F0EAFC424A4FF48053C5F814804FF044
:1011A000020813A92846AC60AC62CDF86480C5E99A
:1011B00000244FF4C072C5E906244FF40062C5E96B
:1011C00008230722C5E903A7CDE91382CDE915A2BB
:1011D000CDE9179805F062FC4FF6FF725946284694
:1011E0000094CBE90067CBE9026405F077FC304658
:1011F00003F0A4FA4FF6FF7259462846CBE9008760
:10120000CBE9026405F06AFC08234FF6FF725946E9
:101210002846CBE90097CBE9023405F05FFC4FF498
:101220000C734FF6FF72594600932846009B4FF00F
:101230001809CBF80860CBF80C30CBE900A705F013
:101240004DFC40F22B712846164D05F066FC4FF020
:10125000204343F2D20264201A6003F06FFA124B6B
:10126000124A28462C62C5E9002323E01B00000334
:1012700000ED00E00038024000040240240300209A
:1012800000280240002002400008024000180240EE
:10129000640300200030024000B002405C010020E6
:1012A000400100A0D002002068474020005C0040C0
:1012B00040010020C5E90246C5E90444C5E90644E9
:1012C00003F044FF2146284604F062F921462846EF
:1012D0005E4D04F083F93422214613A82EF0A6F8BF
:1012E0005B4B2821352040F2152C40F2352E2C6125
:1012F000AC8685F83640C5E900340923C5E90513F5
:101300000B23C5E9070340F21B132846C5E909C3AF
:1013100040F21D13C5E90244C5E90BE304F00AFAE3
:101320004FF48873FF214FF4F07228461E931394F4
:10133000ADF87C408DF87E40464DCDE91638CDE9BC
:1013400018144FF480680521CDE91A814FF040410F
:10135000CDE91424CDE91C12224613A904F0B5FAF4
:101360003D483E4B0462C0E900364FF4A063C0E93B
:1013700002A7C0E90493C0E9064404F009FC4FF059
:10138000804A03F037F802F07DFF5C2003F03AFA60
:1013900000F0D6FB3A4621460FA82EF047F81C2253
:1013A000214613A80E94CDE90C442EF03FF86B2390
:1013B0002846AC60C5E900A3FE23C5E903348023B9
:1013C000AB6105F03BFE4FF480530FA928460F9305
:1013D00005F052FF284605F061FE0CA928460C9442
:1013E0000E9406F075F86023224613A9284615943A
:1013F0001794CDE9133405F0B9FE284600F054FAED
:1014000000F0CAFB00F0C7FB284605F083FC21462C
:10141000284606F05BF806F033F9114A21461148D8
:1014200006F068F9104B114A21461860104806F082
:1014300061F9104B104A21461860104806F05AF91D
:101440000F4B186006F036F9FEE700BF28020020B7
:101450000068014090010020DC010020001000A085
:101460006C030308890E0008580100204803030894
:10147000A71B000854010020240303084D36000870
:10148000500100200268034B9A4201D103F044B995
:10149000704700BF00100040704700000D4B82B045
:1014A0000F216FF001001A6C42F080521A641A6C1E
:1014B00002F080520092009A5A6C42F480425A64C0
:1014C00000225B6C03F480430193019B02B003F0A4
:1014D00059B900BF00380240026882B0084B9A42F6
:1014E0000BD1D3F8302803F5006342F480521A631D
:1014F0001B6B03F480530193019B02B0704700BF44
:10150000003002400E4B07B502689A4215D1A3F590
:10151000F04305215A201A6B42F400021A6300229C
:101520001B6B03F400030193019B03F02BF95A207A
:1015300003B05DF804EB03F057B903B05DF804FBAA
:1015400000B0024010B5A8B004461422002102A841
:101550002DF06CFF8422002107A82DF067FF226880
:10156000174B9A422AD14FF4803307A8079305F00E
:101570000BF808B1FFF790FF124C4FF4C072012135
:101580001148236B43F080032363236B03F0800334
:101590000093009B1223CDE902230323CDE904131A
:1015A000042302A9069303F025FB236C43F40003F4
:1015B0002364236C03F400030193019B28B010BD46
:1015C000005C004000380240001C0240026808B580
:1015D000094B9A420FD1094A80210948136C23F420
:1015E0000003136403F0EAFB4FF480710448BDE884
:1015F000084003F0E3BB08BD005C00400038024037
:10160000001C024070B5ACB004461422002106A8AC
:101610002DF00CFF842200210BA82DF007FF22687B
:10162000484B9A4240F08C800823052001240B93FC
:101630004FF4C07310930223CDE911304FF40033FF
:101640000BA8CDE9154304F09FFF08B1FFF724FF75
:101650003D4B002402250E265A6C06A93B4842F059
:1016600080625A645A6C02F080620092009A1A6B8F
:1016700042F010021A631A6B02F010020192019AF2
:101680001A6B42F400721A631A6B02F4007202922F
:10169000029A1A6B42F480621A631A6B02F4806237
:1016A0000392039A1A6B42F040021A631A6B02F01B
:1016B00040020492049A1A6B42F480721A631B6B04
:1016C00003F480730593059B1023CDE90635CDE91E
:1016D00008440A9603F08EFA4EF6FF7306A91C48DA
:1016E0000A96CDE90635CDE9084403F083FAF723DD
:1016F00006A918480A96CDE90635CDE9084403F055
:1017000079FA4FF4805306A91348CDE90635092329
:10171000CDE908440A9303F06DFA4FF4464306A955
:101720000E480A96CDE90635CDE9084403F062FA81
:1017300058202246052103F025F8582003F054F8DC
:101740002CB070BD0068014000380240001002401B
:1017500000240240002802400018024000200240FD
:10176000142200212DE9F0418AB004460DEB02005D
:101770002DF05CFE22682C4B9A4251D12B4B022556
:10178000032409269A6B4FF0040805A9284842F063
:10179000020200279A639A6B02F002020192019AF8
:1017A0001A6B42F010021A631A6B02F010020292D6
:1017B000029A1A6B42F002021A631A6B02F00202DA
:1017C0000392039A1A6B42F008021A631B6B03F030
:1017D00008030493049BCDE90585CDE9084603F091
:1017E00009FA402305A91348CDE905350A23CDE9B7
:1017F0000774099303F0FEF905A90E480996CDE98F
:101800000585CDE9077403F0F5F94FF4605305A998
:1018100009480996CDE90535CDE9077403F0EAF9E1
:101820000AB0BDE8F08100BF001000A000380240FF
:101830000010024000040240000C0240026808B59B
:101840000B4B9A4213D10B4A04210B48936B23F0A4
:101850000203936303F0B2FA4421084803F0AEFA9E
:101860004FF460510648BDE8084003F0A7BA08BD30
:10187000001000A0003802400010024000040240A6
:10188000000C0240036882B0B3F1804F0AD103F527
:101890000E331A6C42F001021A641B6C03F0010350
:1018A0000193019B02B0704710B586B00446142224
:1018B000002101A82DF0BAFD2368B3F1804F15D1A6
:1018C00003F50E3301A90A481A6B42F001021A63AC
:1018D0004FF400421B6B03F001030093009B0223B3
:1018E000CDE901230123059303F084F906B010BD6F
:1018F00000000240F0B5002387B00393294B1E6817
:10190000002E4DD10122022703250C241A6001A9C3
:10191000254B26489A6B42F001029A639B6B03F0B9
:1019200001030093009B4FF68373CDE90454CDE986
:10193000013703F05FF948F2331301A91C480594FD
:10194000CDE90137CDE9036503F054F94CF2037397
:1019500001A918480594CDE90137CDE9036503F0E5
:1019600049F94FF63F0301A913480594CDE9013722
:10197000CDE9036503F03EF9282301A90F4805943A
:10198000CDE90137CDE9036503F034F9082301A956
:101990000B480594CDE90137CDE9036503F02AF939
:1019A00007B0F0BD8803002000380240001002405C
:1019B00000180240000C024000140240001C0240CB
:1019C00000080240214B1A6C42F0100270B51A64F4
:1019D00088B01B6C054601A903A803F0100302930D
:1019E000029B04F0B3FD069B4BBB04F09FFD184E19
:1019F000184B336040F2E733F360174BB0FBF3F35F
:101A0000013B3046736000233361B360B36105F07E
:101A100015FB044680B9304605F0B6F9044658B9BE
:101A2000362002F0E1FE0F2D0DD822462946362041
:101A300002F0A8FE094B1D60204608B070BD04F0FE
:101A400075FD4000D3E70124F6E700BF00380240EF
:101A50008C0300200010004040420F003C0000209A
:101A60007047FEE7FEE7FEE7FEE77047014805F036
:101A7000CEB900BF8C030020014803F0C9BE00BFEF
:101A800028020020014802F0E4BF00BF2403002028
:101A90000120704708B52DF07DFD162303604FF03F
:101AA000FF3008BD08B52DF075FD16230360FEE775
:101AB00070B50D4614460E46731B9C4201DC204651
:101AC00070BDAFF3008006F8010BF5E770B50D4669
:101AD00014460E46731B9C4201DC204670BD16F86E
:101AE000010BAFF30080F5E74FF0FF3070474FF484
:101AF000005300204B607047012070470020704762
:101B00000B4A0346116810B509B90A4911601068FB
:101B100009490A4C0344091B8B4206D92DF03AFDB2
:101B20000C2303604FF0FF3010BD1360FCE700BFD3
:101B3000D8030020007B012000000520000A0000DF
:101B400070470000DFF834D0002103E00C4B5B58F5
:101B5000435004310B480C4B42189A42F6D30B4ABF
:101B600002E0002342F8043B094B9A42F9D302F009
:101B7000D9FC2DF015FDFFF7D9F9704700000520BD
:101B8000BC53030800000020240100202401002091
:101B9000007B0120FEE7704708B501F031F9BDE890
:101BA000084001F0B3B801F02DB9406870474160BA
:101BB000704700004FF0E022D2F8FC3D43F0807304
:101BC000C2F8FC3D054B064AD3F8B01F0A43C3F8E0
:101BD000B02F1A6842F001021A607047001000E04E
:101BE00055CEACC5521A02EB5302B2FBF3F070476C
:101BF000014B5868704700BF001000E0704710B5F7
:101C000004460C212CF00FFA204610BD036810B5D5
:101C10001B69044631B19847A26863689B1A034464
:101C2000636010BD9847A060FBE70000024B702086
:101C3000024A1360DB68184710000020DC03002014
:101C4000704710B5044604212CF0EDF9204610BD74
:101C500073B50E4E0D461446336813B9002002B01A
:101C600070BD1B69702098470028F7D0336870203A
:101C700001AA0DF106015B699847BDF80430012007
:101C80002B60BDF806302360E9E700BFDC030020CD
:101C90007FB501238DF817204FF47A72CDE9013218
:101CA0000DF1170200920A460146054803F0B8FA02
:101CB00010B1034803F09BFA07B05DF804FB00BFC6
:101CC000D00200207FB500230A464FF47A718DF8C8
:101CD00017300123CDE901310DF1170100910146C3
:101CE000054803F077FB10B1034803F080FA9DF834
:101CF000170007B05DF804FBD0020020032823D8AA
:101D0000DFE800F0020B131A104B102110481A687C
:101D1000B2FA82F2520903F0F1B80C4B40215A6832
:101D2000B2FA82F252090B48F5E7084B80219A6813
:101D3000B2FA82F25209F6E7044B40210648DA680B
:101D4000B2FA82F25209E6E7704700BFE0030020D2
:101D5000000402400008024000180240032823D873
:101D6000DFE800F0020B131A104B102110481A681C
:101D7000003A18BF012203F0C1B80C4B40215A6849
:101D8000003A18BF01220B48F5E7084B80219A68FA
:101D9000003A18BF0122F6E7044B40210648DA68F2
:101DA000003A18BF0122E6E7704700BFE0030020B9
:101DB00000040240000802400018024003280FD827
:101DC000DFE800F00206090B1021064803F09BB87B
:101DD00040210548FAE78021FBE740210348F5E769
:101DE000704700BF00040240000802400018024093
:101DF00008B5032813D8DFE800F0020A0D0F102100
:101E0000084803F075F8431E5842584108BD402168
:101E10000548F6E78021FBE740210448F1E7002070
:101E2000F1E700BF00040240000802400018024031
:101E300070B5084D00240126E0B2FFF7D9FF18B1B4
:101E40002B68012B18BF2E6001340435052CF3D10B
:101E500070BD00BFE0030020012380F8781080F8F7
:101E6000793070470020704741640039024B18BF39
:101E700001211970704700BFC76E01200020704714
:101E8000836B0BB10846184770474FF6FF707047D9
:101E9000406803689B6918477047000038B50446DE
:101EA00001F0FEF8084923682046084DD3F88C302D
:101EB00098470023284684F84A30FFF77BFE012329
:101EC000256184F8703038BD000000C0F0030020A8
:101ED00001F088B801F08CB870B501F00BF9104929
:101EE0000023C1F88430BFF34F8FD1F8803043F620
:101EF000E074C3F3C900C3F34E335B0103EA040685
:101F0000024646EA8275013AC1F87452F9D2203B82
:101F100013F1200FF2D1BFF34F8FBFF36F8F70BD5E
:101F200000ED00E001F0E8B801F038B801F00ABABD
:101F300001F012BA01F03CB810B5044616F038FAB8
:101F400023682046D3F8AC30BDE81040184715F0A0
:101F50008CBC10B504467C212CF065F8204610BDE1
:101F600090F834100D4B10B590F878401A788C42E8
:101F700009D03AB90A490B4A08881488108001220E
:101F80000C801A7010BD002AFCD0064A044914883F
:101F900008880C8010800022F3E700BFC06E01208B
:101FA000BE6E0120BC6E012070B50D46194635B9D4
:101FB000094B40F2D221094A09482CF07BFFC0E9C5
:101FC0000F52003A074B18BF01221A700368BDE890
:101FD0007040D3F88C301847D00303080804030876
:101FE00056040308C66E012008B5094B1B888B42B6
:101FF00003D8084B1B88934205D9074B9E21074AFB
:1020000007482CF057FF074B1980074B1A8008BD73
:10201000BC6E0120BE6E01209B040308FE04030871
:1020200056040308C26E0120C46E0120034690F8D6
:102030007A0018B1586803681B6818477047000099
:10204000014608B5034B186801B1012116F0CAF921
:10205000012008BDC86E0120034B00225A609A601F
:10206000024A1A60704700BFF0030020980303087B
:102070000121002208B5084605F046FC0A4B18600D
:1020800028B90A4B28210A4A0A482CF013FF0022DB
:102090000421012005F002FD074B186018B9074B19
:1020A0002C21034AF0E708BD000400201C060308A9
:1020B0006506030894060308FC030020E3060308F2
:1020C000024B4FF0FF31186805F076BC0004002089
:1020D000014B186805F0ACBC00040020024B002145
:1020E000186805F069BC00BF00040020FFF7F0BFCE
:1020F0000023034803491A46006805F015BD00BFD8
:10210000FC0300200400002013B50023074C01A9A4
:102110001A46206805F04AFD4FF0FF33002201A95E
:10212000206805F043FD02B010BD00BFFC03002095
:1021300003685B6C18470120704703689B6A184767
:102140000D4B82B01A6B42F400021A631A6B02F450
:1021500000020192019A1A6942F400021A611A6996
:1021600022F400021A61054B054A1A614FF08062A1
:10217000044B9A6002B070470038024024030020EC
:102180001124000800E100E040F2EF307047000049
:10219000054B4FF080620360044BC3F88820BFF307
:1021A0004F8FBFF36F8F70478408030800E100E092
:1021B00010B504464FF45A61FFF7EAFF20462BF0B2
:1021C00032FF204610BD000008B50A2809D8DFE814
:1021D00000F006100E080808081010101000022069
:1021E00008BD054B8621054A05482CF063FE0020FA
:1021F000F6E70120F4E700BF2507030840070308BE
:102200008B07030838B50C46887FFFF7DDFF174BB7
:10221000A58AE28A586342EA054221695A64628BC0
:10222000D963521B1A642568082D0ED19A611A6170
:1022300058620F4A207F42EA0062DA61E2681A625D
:102240000C4A5961D9601A6038BD0022D8611A6100
:10225000E1680A0A4809C1F3C40102F4784200F4B3
:10226000FC6002430A439A63034AECE700B0024071
:1022700009000100010202000102030008B50B2859
:102280000BD8DFE800F00612100A0A0A0A0808084C
:102290000808022008BD0520FCE7054B6521054A1A
:1022A00005482CF007FE0020F4E70120F2E700BF0C
:1022B00025070308D80703088B0703082DE9F04119
:1022C00091F81D800C464046FFF7D8FFA77F0546D2
:1022D0003846FFF7D3FF06463846FFF775FFA18A59
:1022E000628B434B521A1A649A61228B521A1A61FA
:1022F000E28A586342EA014221695A646268D963FA
:10230000DA602068802828D0227F0FD8202866D065
:10231000402864D004281AD045EA0265344BB845F9
:1023200045F40035DD6160D0324A44E0B0F5807F8D
:1023300004D0B0F5007FEFD12F4800E02F4840EAED
:102340000262DA61E2681A625E62596132E045EA6D
:10235000026242F40032DA61F6E7A068021DDA6236
:10236000227F45EA026545F40035DD615E62596110
:10237000017841B1012921D0214B4FF48871214AC4
:1023800021482CF097FDDA69418822F47F42013917
:1023900022F0100242EA01220121DA61144BDA69CB
:1023A00042F02002DA61DA699206FCD410229A60C7
:1023B0000029B9D0154A1A60BDE8F081B2F1FF01D9
:1023C000DA69408822F47F4218BF0121013822F0E7
:1023D000100242EA002242F01002DA61DEE745EA2A
:1023E0000262034B42F40032B5E740F20122E2E719
:1023F00000B0024001020100090002000A000200D0
:10240000220803083C0803088B07030801020200A6
:10241000024B1B68586803685B691847C86E012047
:1024200070B504460A4B0C300026254660226060D9
:102430002672667245F8203B294616F029F904F504
:102440005A63EE6024359D42FBD1204670BD00BF2B
:1024500084080308034B1A68D207FCD423229A602D
:10246000704700BF00B0024030B5104C2568ED0742
:10247000FCD423250904FF2BA56041F001014FF096
:10248000020565636164E0630AD00949656241EA57
:102490000363E361074B22626061E060236030BD4B
:1024A000E561039BA363044BF8E700BF00B0024063
:1024B00009000100010002000100030040697047AB
:1024C00090F844007047036B23B9C06A003818BF06
:1024D000012070470120704780687047043010B5B4
:1024E0000C460FC884E80F0010BD704708B5034ABA
:1024F00040F21221024B03482CF0DCFCCC0803080C
:10250000D32103082709030810B5044648212BF0FE
:102510008AFD204610BD00002DE9F0431C46436BA8
:10252000ADF51F7D05460E461746002B37D000221D
:1025300003A8DFF8A890CDE901320DF00BFC4FF4B1
:10254000F4725021249024A807F0B9FB3A46314692
:1025500024A808F00DFB012124A807F0ABFC0223FE
:1025600024A88DF8D83007F046FDBDF898322B9A94
:10257000BDF89C629342A89F28BF1346419A964299
:1025800003EB4308A7EB430728BF1646479B9E4231
:1025900009D824A807F0B0FC24A807F0DDFB0DF54E
:1025A0001F7DBDE8F083012201A924A807F06CFD7E
:1025B0006B6B03EB0800984201D83C44E6E759787E
:1025C0009A78C90009EA022201F4FC610A4313F86F
:1025D000031B42EAD10224F8022BECE700F8FFFFCC
:1025E0000A4A02600022C0E90522C0E90722C0E9C8
:1025F0000922C0E90B22C0E90D12C0E90F2280F8C0
:102600004420C0E90322C0E901227047080C0308F6
:1026100010B40C4611461A46036B3BB1036C806B39
:10262000E41A20445DF8044B2CF008BFC06AF8E7B8
:10263000036B10B573B1036C826BC91A5318525CEB
:1026400098785C780004DB7840EA0420104340EA84
:10265000036010BDC36A5858FBE7036B43B1036CBA
:10266000C91A836B5A18585C527840EA02207047A6
:10267000C36A585A7047000070B50446006B0D4697
:102680001646D8B1E36B934208D209230D4A65215F
:102690000D4884F844300D4B2CF00CFC0368DB68CB
:1026A0009847206B3246A16B03681B69984710B9A5
:1026B0000D2384F84430A06B256470BDE06A0844A3
:1026C000FBE700BF930903082709030880090308F3
:1026D0002DE9F843436904462BB9234BAA21234A29
:1026E00023482CF0E7FB08228169FFF7C5FFA169A9
:1026F00043F2300646F2643704312046FFF798FF74
:10270000A3691844A36A00F108029A4206D3012380
:1027100000206361236AA361BDE8F883636909301F
:102720000822013320F0010120466361A161FFF717
:10273000A3FFD4F8189020464946FFF78EFF09F111
:10274000020180462046FFF788FF09F10401054693
:102750002046FFF76DFFB045D2D1BD42D0D1002851
:10276000CED00120D8E700BFD50903081E0A030810
:10277000270903082DE9F04F0446ADF51F7D8A4671
:102780001646816908229846FFF776FFA76920461A
:10279000391DFFF74DFF07F10801024605462046A7
:1027A000FFF76AFF636B074633B93C4B40F2AB114E
:1027B0003B4A3C482CF07EFB002203A8CDE90132C5
:1027C0000DF0C8FA4FF4F4725021249024A807F0B9
:1027D00076FA2A46394624A808F0CAF9012124A825
:1027E00007F068FB022324A88DF8D83007F003FC1B
:1027F000BAF90250479BAB4229D3BAF900904FEA8D
:102800004808BAF804702B9B08FB05664F44BAF8D9
:102810000250DFF894B03FB29F4228BF1F46BAF87B
:10282000063009EB490A1D44419B2DB29D4228BF49
:102830001D46479BAB4210D324A807F05DFB24A89C
:1028400007F08AFA01200DF51F7DBDE8F08F012207
:1028500001A924A807F018FCCCE7012201A924A8AB
:1028600007F012FC626B49465244B94202F103027E
:1028700001D34644DDE712F8020C12F8013CC00017
:102880000BEA032300F4FC60034312F8030C43EA51
:10289000D00326F811300131E7E700BF510A0308E1
:1028A000A70A03082709030800F8FFFF01290368A6
:1028B00038BF0121DB6A70B50D4604469847A8422F
:1028C00004D223682046DB6A984705466B1EE669FA
:1028D0001022204606EB031606F10801FFF7CCFE96
:1028E00006F110012046FFF7A3FE236A043B0344D0
:1028F000C4E9055370BD0000002148222DE9F041D4
:102900000446816180F84410FFF7B6FEA6690423EF
:10291000624A31462046FFF77BFE40B10323604AFE
:10292000F22184F844305F4B5F482CF0C3FA06F183
:10293000080104235D4A2046A161FFF769FE30B11A
:102940000423574AFA2184F84430594BECE706F146
:102950000C010423574A2046A161FFF759FE0746A0
:1029600038B105234E4A40F2011184F84430524BED
:10297000DAE706F110012046FFF75AFE054620B9B6
:102980004E4B40F20711464ACEE706F114080423E5
:102990004B4A20464146FFF73BFE002849D006231C
:1029A00084F844300423474A06F118012046FFF713
:1029B0002FFE00283FD0072384F844304544424F7F
:1029C0000C2220462946FFF757FE05F1080604238E
:1029D0003A4620463146FFF71BFE94F84430002863
:1029E00048D0002B48D1A36AAB4249D805F10C036B
:1029F00004352046A3612946FFF71AFE30442946D4
:102A000060622046FFF714FE064404222046314649
:102A1000FFF732FE04232D4A31462046FFF7F8FD2A
:102A2000002838D10123E6616361A3692362BDE810
:102A3000F0810127B6E7002FC0D006F12001204623
:102A4000FFF7F6FD4FF47A7306F13001B0FBF3F0B7
:102A500060602046FFF7ECFD06F14001A0602046D3
:102A6000FFF7E6FD06F14401E0602046FFF7E0FDD8
:102A70002061A3E7002BB9D00A2384F84430D6E7BD
:102A8000291D2046FFF7D4FD85190C222046294632
:102A9000FFF7F2FD99E70B23EFE700BF010B0308F7
:102AA0001F0B0308060B0308270903084C0B030838
:102AB000510B0308690B03086E0B0308840B030812
:102AC000900B0308950B03089A0B03089F0B030850
:102AD000C0E90A2100220263FFF70EBF10B50023F0
:102AE00004460846E3620B6821639B689847A0622E
:102AF0002046BDE81040FFF7FFBEF0B4069FBDF8CA
:102B00001050BDF8146032B12BB10495CDE90567C2
:102B1000F0BCFFF701BDF0BC704700002DE9F04F9D
:102B20009946436985B004460F4690462BB9294B18
:102B30007721294A29482CF0BDF908228169FFF73D
:102B40009BFDA66920463146FFF787FDB11C8346F1
:102B50002046FFF782FD311D82462046FFF768FDC3
:102B600006F10801A36A054642189A4226D243F2AA
:102B700030039B4517D146F264339A4513D190B187
:102B80000246A1612046FFF777FD0E9B01462A46CB
:102B90002046CDF80080CDE901933B46FFF7ADFF1D
:102BA000636901336361A3692B4405B908330133B9
:102BB000626A23F001039342A36109D1012301203A
:102BC0006361236AA36180F0010005B0BDE8F08F66
:102BD0000020F8E7D5090308A40B03082709030818
:102BE000012070470C2070470C2303FB01000830C4
:102BF00070470C2303FB0100083070470120704729
:102C000041F61860704741F6186303FB0100083075
:102C1000704741F6186303FB01000830704701203C
:102C200070471020704700EB01100830704700EB30
:102C3000011008307047084600F01ABF034B10B56A
:102C40000446036014F090F8204610BDB00C030851
:102C500010B50446FFF7F2FF142120462BF0E3F9EC
:102C6000204610BD034B10B50446036014F07CF8F9
:102C7000204610BD7C0C030810B50446FFF7F2FF98
:102C80004FF4F15120462BF0CEF9204610BD000044
:102C9000034B10B50446036014F066F8204610BDDF
:102CA000480C030810B50446FFF7F2FF1821204630
:102CB0002BF0B9F9204610BD094B10B5044603604E
:102CC00000F5F2500C30FFF7B9FF04F12C00FFF7CC
:102CD000C9FF04F11400FFF7DBFF204610BD00BF61
:102CE000E40C030808B50248FFF7E6FF08BD00BF83
:102CF000D012002010B50446FFF7DEFF4FF4FE515E
:102D000020462BF090F9204610BD00002DE9F3413C
:102D100000F034FD0024054600F034FD2346014652
:102D20002246284600941CF0D1FF284B284A204612
:102D3000284D1A6001F078F9274B284A28489A60F4
:102D40001CF02CFF2B68BFF35B8FDB0737D42846C2
:102D50002BF06BF998B3234C234B04F12C0804F1AE
:102D60001400236008F5F1576060C4F8088007F18B
:102D70001806E760266113F0F9FF1C4B40466361BB
:102D800013F0F4FF1A4B3846E36213F0EFFF04F53B
:102D90008053184A04F5F350C3F84C2E01F0BAF9E9
:102DA000224604F5F351304601F0AAF9304600F00E
:102DB0005FFE11482CF09CF828462BF042F90F4892
:102DC00002B0BDE8F041FFF769B800BF2C6F0120E9
:102DD00080040020CC120020A004002084040020E5
:102DE00008000020D0120020E40C0308480C03085F
:102DF0007C0C0308B00C0308E52C00080404002038
:102E000070470000014814F09ABD00BF0404002080
:102E100070B5244E244B254C3046254D2360FFF7DA
:102E2000FFFA284621F02CFA22481AF0FDFF224B27
:102E300000224FF4807121481A8683F858205A6680
:102E400083F870205A67DC60C3E912121C49C3E999
:102E50001A121C4999671C490B604FF4F0710180EC
:102E60001A4801804FF488711948C3E90422C3E964
:102E70000622C3E90822C3E90A22C3E90E22C3E9F4
:102E80001022C3E91422C3E91722C3E901650180B6
:102E9000104883F8342001800F490A700F4A1A60E5
:102EA00070BD00BF28050020C0030308C812002021
:102EB000A00400208404002004040020BC6E012033
:102EC0000100000100000101C86E0120C26E012056
:102ED000BE6E0120C46E0120C06E01204C050308A7
:102EE0000148FFF755B900BF2805002000207047B2
:102EF00081807047C1807047018170474181704770
:102F00007047704770477047704710B4C4880368B3
:102F1000121B84885B6D091B12B25DF8044B09B269
:102F200018474FF6FF7383814FF0FF330362136836
:102F3000C36110607047002070478B888380012038
:102F40007047704780F82610704790F82600704749
:102F5000002210B5B1F90840B1F90A100280428090
:102F60008480C18010BD0022028042808280C280A5
:102F700070470177704780ED080A704780F8241089
:102F8000704780F8251070470120704798307047CF
:102F90008C3070478430704770470000034B90229C
:102FA00083F85A2383F85823704700BF00E100E0FC
:102FB000094A0A49D3680A48C3F30A03013B9BB292
:102FC0000B801169C1F30A01013901801364536B4D
:102FD00043F00103536370470068014092320020C0
:102FE00090320020014BD3F8AC00704700680140DC
:102FF000024B0122C3F8AC105A62704700680140CE
:10300000124A5369DB0370B51ED50023C2F8843021
:10301000BFF34F8FD2F8803043F6E074C3F3C9009A
:10302000C3F34E335B0103EA0406014646EA8175A9
:103030000139C2F87452F9D2203B13F1200FF2D1BA
:10304000BFF34F8FBFF36F8F70BD00BF00ED00E087
:103050007047704770473823002201FB0333C25486
:1030600090F838300BB9036C83647047704780F870
:103070004C10704710B5044658212AF0D4FF204662
:1030800010BD10B504462C212AF0CDFF204610BDFE
:1030900010B50446BC212AF0C6FF204610BD000032
:1030A00038B5044614F037FC23685D6E19F08EFDC8
:1030B00001462046A8472368084A2046D3F888508E
:1030C0000023A2F57F31A847054B064A5A60064AFD
:1030D0001A649A644FF4FF225A6438BD00F807C09E
:1030E00054330020AC33002000F40BC014F0FABBC2
:1030F00014F004BC14F0BFBB14F02FBD90F82520D1
:1031000012B103685B6918477047000008B531B118
:10311000044B40F29711044A04482BF0CBFE90F880
:10312000390008BDF00C0308040D0308910E0308D4
:1031300010B531B1064B40F29111064A06482BF00A
:10314000B9FE406811460368BDE810401B6B184784
:10315000F00C0308D30E0308910E030808B529B13B
:10316000034B7A21034A04482BF0A4FE006908BDF2
:10317000F00C030884100308910E030808B529B168
:10318000054B8321054A06482BF094FE416181607E
:10319000C0E9063208BD00BFF00C03083C1203086A
:1031A000910E030810B5044629B1274BA421274AE4
:1031B00027482BF07FFE052A34D8DFE802F00329E8
:1031C0002F34393E406803681B69984750B34FF06D
:1031D000FF31606D04F03CFB0023012294F83E10A7
:1031E00084F83B3084F83920A360636101B1226226
:1031F00084F83E306362E36A2BB90123206D84F8C2
:103200003A3004F015FC606DBDE8104004F050BB8E
:10321000002380F8393084F83E3003E00362002355
:103220008360436110BD0362002383604361F2E762
:10323000002380F839300123EDE7003B18BF01235C
:1032400080F83D30EEE700BFF00C0308FB130308E5
:10325000910E030890F825201AB190F8242002B1AD
:103260001860704770B50446164629B1314BE72106
:10327000314A32482BF01EFE90F8393033B1304BD2
:103280001B6893F86B20436913444361E36A002B86
:103290004DD0E169D4E905325343A2684A439342D1
:1032A00020D2236A002B42D04FF0FF31606D04F032
:1032B000CFFA236A0BB10023E362E36AFBB901256D
:1032C000606D04F0F5FA94F839300BB9236A3BB11C
:1032D000E36A2BB90123206D84F83A3004F0A8FB8F
:1032E000284670BD94F84C000028DDD09B1AB3FB33
:1032F000F1F2994298BF02F1FF326262D4E70022F4
:1033000094F83C50A3623046E262E2682261A2680F
:103310000132A260336333685B699847002DCED1D8
:1033200094F83D30002BCBD184F83950C8E7012503
:10333000C9E700BFF00C0308D2150308910E03087B
:10334000C86E0120034B4FF080629A604FF080728C
:103350009A60704700E100E0084B4FF08062C3F8CC
:103360008820BFF34F8FBFF36F8F4FF08072C3F889
:103370008820BFF34F8FBFF36F8F704700E100E0ED
:1033800038B5034690F8380038BB01229860D86001
:103390009A634FF4807258619A874FF4F072986183
:1033A000D861186258629862D8621863586383F8CB
:1033B0003E00CA864FF4887281F834000A87086399
:1033C0009A6C186102F5FF24D3E9101529448C4248
:1033D0000AD9084B5821084A03E0084B40F2F5117E
:1033E000074A08482BF066FD1A6302F57F329C6499
:1033F0005A6338BD3019030870190308761703089B
:10340000A6170308910E0308002370B5124E054657
:103410008380124B0360336893F858200AB1D86C4C
:1034200000B998680368DB6A98473368B0FA80F49B
:10343000D86C640930B10368DB6A9847002808BF7C
:1034400044F001042CB9064B2C21064A06482BF007
:1034500031FD284670BD00BFC86E0120181C03084E
:10346000161B0308741B0308AD1B030870B5244E1C
:103470003568BFF35B8F15F001053FD130462AF068
:10348000D4FD00283AD01F4C1F4B04F134002561B5
:10349000E584A562A585C4E90035C4E902551AF0A2
:1034A00022FF04F1580017F0BDF9184B2046A36520
:1034B000174B40F8843BFFF7A7FF164B1648C4F89C
:1034C00084302433C4F89050C4F88C306423C4F89A
:1034D0009C50C4F8A850C4E928350023C4F8AC3087
:1034E000C4F8B030C4F8B430C4F8B8300B4BC4F8EA
:1034F00098302BF0FDFC30462AF0A3FD014870BD4A
:10350000943200209832002020470308381C03081A
:10351000B01C0308D4460308992F0008B4460308DA
:1035200010B5144C236823B3134B144A1B6C118839
:103530008B4213D1124B198802F0F4F9226892F8E9
:103540006A30013382F86A30FEF7D2FD206814F049
:103550002FFF0020BDE81040FEF7D0BB02F0E2F9DB
:10356000206803681B6A98470020BDE81040FEF7FA
:10357000F5BB10BDC86E01200068014092320020EA
:10358000903200202DE9F74304464FF4707894F808
:103590003A304FF0FF31002B31D0606D04F058F914
:1035A000276BA36ABB4200D1676B266A656856B376
:1035B0002B68314628465B6A98470023236284F8CB
:1035C0003B30606D04F074F92B684FF4F0723946AB
:1035D000CDF8008028465E694FF48873B0474FF0FD
:1035E000FF310646606D04F033F994F83B30E3B1E7
:1035F000002384F83B30606D04F05AF9C7E7206D72
:1036000004F0DAF9C3E7636A002BDAD02B682846A6
:10361000D3E909939847616A01442846C847A368DB
:10362000626A66621344A360CBE7E7625EB12B680F
:1036300028469B6A984701380023E06084F83C6084
:1036400084F83A30D7E70120F6E70000014808B5D2
:10365000FFF798FF543300200368042270B5044636
:103660005E6A00230D46B0474FF0FF31606D04F0F5
:10367000EFF8382303FB0542D16A09B10021D1627A
:1036800003FB0545012385F83B30002385F83930DD
:10369000606DBDE8704004F00BB938B500EB8103F4
:1036A00004460D46114658680368DB68984729466A
:1036B0002046FFF7D1FF38BD70B50D4611460446D0
:1036C00000EB85025068026896681A46B0472946A2
:1036D0002046FFF7C1FF70BD38B5164900251648D2
:1036E000FEF77EFF154C164B01202A462946236023
:1036F0004FF48073A564A38784F84C0084F83E508F
:10370000C4E91055C4E91455C4E90155C4E9035589
:10371000C4E90555C4E90755C4E90955C4E90B5581
:10372000C4E90D5504F0F0F82065284604F04EF881
:10373000606538BDF4330020AC33002054330020E2
:10374000FC1C0308704710B5044604212AF06BFCEA
:10375000204610BD012908B506D0022908D059B964
:1037600000F0A0FC006808BD00F09CFC4068FAE78F
:1037700000F098FC8068F6E70020F4E70048704706
:10378000481D03080420704713B5002451B1036895
:1037900001AA01948DF803409C680DF10303A04732
:1037A00002B010BD0846FBE7C0897047008A704729
:1037B000C088704780887047807A00F07F0070472B
:1037C000807AC00970470020704700009FED010A11
:1037D000704700BF000000007047704700F5987305
:1037E0000868496803C37047704770474160704775
:1037F00070470000064BC0F84801C0F84C31002368
:10380000C0F8503100F5A273C0F84031704700BFD6
:10381000B53800080123037270477047704710B431
:1038200041680346C2689B68541001EB6200D207EE
:1038300048BF0A595DF8044B48BFD35818470346A0
:10384000406830B19A681AB9D86800F00100704732
:103850000120704710B504460C212AF0E4FB2046F5
:1038600010BD10B5044610212AF0DDFB204610BD26
:1038700010B504464FF4AE712AF0D5FB204610BDBA
:1038800010B519F0A3F90368BDE81040DB6B1847C9
:1038900010B50446D0F8400158B10368DB6898477A
:1038A00038B1D4F8400103689B6898470023C4F8F6
:1038B000403110BD2DE9F14FD0E9556A0746B06897
:1038C00003681B6A984741F61763984205D8444B32
:1038D000A321444A44482BF0EDFA706803681B6A40
:1038E00098470F2803D8414BA4213E4AF2E7F068DD
:1038F00003681B6A98470B2803D83D4BA521394A1A
:10390000E8E7DFF8F49019F061F9043019F083F971
:10391000D9F8000010B10368DB689847D9F80000B7
:1039200010B103681B689847DFF8D080D8F8000012
:1039300010B103685B699847D7F83C0110B1036880
:103940005B689847D8F8000010B103681B68984777
:10395000D7F83C0110B103689B689847F0680021D4
:103960004FF0000B03685B6A9847224B0446C0F88F
:1039700004B080F808B059460360B06803685B6A19
:103980009847054600F002FC7068594603685B6A78
:1039900098470646294600F0D5FB331DC7F83C6121
:1039A0002846C9F80040C8F80050CAF800302B6813
:1039B000C6F808A0DB68EE639847336830461B689A
:1039C0009847214628461BF0E1F9236820461B69E9
:1039D0009847236820465B6901B0BDE8F04F18475F
:1039E000981D0308261E0308F61E03083D1F030842
:1039F000E01F0308F8200308106F01200C6F01205E
:103A0000044B1B6893F858200AB1D86C00B9986829
:103A1000704700BFC86E012070B5044616460D46BB
:103A200019F09AF90E4B00211C600E4B23600E4BCF
:103A3000C4E951310D4B1868C4E953110368C4E956
:103A40004F119B68C4E955659847FFF7D9FF22F0ED
:103A500048FAFFF7D5FF22F0BFFA204670BD00BF3D
:103A60001C6F0120A42003088C200308C86E0120CD
:103A7000064BC0F84801C0F84C310023C0F8503163
:103A800000F5A273C0F84031704700BFB538000898
:103A9000406A7047806A704770478B88C069DB0A4C
:103AA0000A6850F823001044704710B50446BAB1B4
:103AB000107B68B1537BD27A1B0203F4E0631A4394
:103AC000236A03EB82031A888A4202D193F9020027
:103AD00010BD05D80138043380B20028F3D1F7E7D0
:103AE0000020F5E710B504462C212AF09CFA204668
:103AF00010BD000030B58BB00446BDF8605008958D
:103B0000BDF85C5007959DF8505006959DF84C50B7
:103B100005959DF8485004959DF8445003959DF8EF
:103B2000405002959DF83C500195BDF838500095E5
:103B30001AF096FC064B20462360159BE361169B0A
:103B40002362199B63621A9BA3620BB030BD00BF56
:103B50001C210308704770477047704770477047D3
:103B60007047704770B445680346C4689B68661028
:103B700005EB6400E40744BFAC59E35870BC184738
:103B80000346406830B19A681AB9D86800F001005D
:103B900070470120704710B5044610212AF043FAFF
:103BA000204610BD034B10B50446036017F0A4FF78
:103BB000204610BD9C210308064B10B50446036047
:103BC00017F09AFF41F6186120462AF02CFA204699
:103BD00010BD00BF9C21030810B400F198048C4272
:103BE00005D1036811465DF8044BDB6A18475DF8A0
:103BF000044B7047036870B504461B6B1546984725
:103C00002368204629465B6BBDE87040184770B5B5
:103C100004461D46BDF91060FFF7ECFF23682946F6
:103C200020469B6B9847236831462046DB6BBDE8F6
:103C3000704018472DE9F04F044689B000251AF06E
:103C4000F9FEA146664BE56304F16C0749F8403B79
:103C500004F19806634B07A904F5C67A3846256631
:103C60004FF4887BA56604F10408C4E910354FF4CD
:103C70008073A4F86430FF2384F866304FF6FF7336
:103C8000C4E91255C4E91455C4E91655ADF81C3001
:103C900016F030FE304613F04FFD504616F0BAF8DD
:103CA00004F5EA7318460393FFF7AEFB4E4B4F4AF9
:103CB00004F5F470C4F8D4312433C4F8E0514FF45F
:103CC000E151C4F8DC3104F58053C3F8082E484AAA
:103CD000C3F80C4EC3F8102EC3F8145E17F002FFA1
:103CE0002A46294648464FF4F073CDF800B0FFF756
:103CF0008EFF4FF07F4349464046A36613F04AF8D3
:103D0000032307A93846ADF81C3016F0FAFF4FF42C
:103D1000F0732A4629463846CDF800B0FFF777FF02
:103D20002946384616F0A1FD3946404613F032F8D0
:103D30002A4630460921FFF75DFF022306AA05A99E
:103D4000ADF8143001233046ADF81850ADF81C30F2
:103D500007AB13F04BFD4FF4967330460B22102146
:103D6000CDE900532B4613F049FCFE22294630468C
:103D700013F0DDFA3046FE2113F0A1FA04F5F053FA
:103D8000314640460833C4F8883113F003F8502315
:103D90000622504600934FF4BD71FFF738FF4FF4F1
:103DA000A06340465146C4F8C031C4F8CC51C4F8B1
:103DB000C451C4E96E334FF43453C4F8C8310D4BC9
:103DC000C4F8E0314FF62513A4F8E431039BC4F89E
:103DD000B43112F0DFFF204609B0BDE8F08F00BF1C
:103DE0009C21030888490308D4460308842103085A
:103DF000D93B00082B24FFFF7047000030B5164D5B
:103E00008FB02C68BFF35B8F14F0010420D12846DB
:103E10002AF00BF9E0B13F23012210490993104B1E
:103E200010480893104B0A940594CDE906430423E7
:103E3000CDE903320A23CDE90B440093CDE90144D7
:103E4000FFF758FE09482BF053F828462AF0F9F8F6
:103E500004480FB030BD00BF743B002080570E9067
:103E600078530308783B002084530308F93D000889
:103E70007047000030B5164D8FB02C68BFF35B8FD4
:103E800014F0010420D128462AF0CFF8E0B13F23F6
:103E9000012210490993104B10480893104B0A94C3
:103EA0000594CDE906430423CDE903321423CDE97B
:103EB0000B440093CDE90144FFF71CFE09482BF0A9
:103EC00017F828462AF0BDF804480FB030BD00BFEF
:103ED000A43B002090570E907C530308A83B002081
:103EE00088530308713E00087047000030B5164D36
:103EF0008FB02C68BFF35B8F14F0010420D12846EB
:103F00002AF093F8E0B13F23012210490993104BA6
:103F100010480893104B0A940594CDE906430423F6
:103F2000CDE903322823CDE90B440093CDE90144C8
:103F3000FFF7E0FD09482AF0DBFF28462AF081F868
:103F400004480FB030BD00BFD43B0020A0570E90F6
:103F500080530308D83B00208C530308E93E000837
:103F600000207047002070470EB403B503AB00215A
:103F700053F8042B019319F077FD02B05DF804EBC0
:103F800003B070470CB407B504AB53F8042B01938E
:103F900019F06AFD03B05DF804EB02B07047000051
:103FA000436C10B5044673B3038F2BB9184BC5216E
:103FB000184A19482AF07EFFC38E00EB43035B8C3E
:103FC0000BB31BF0AFFB238F012B03D8134BCB217B
:103FD000134AEEE7E28E40F63F10531C9BB2092BCA
:103FE000194688BFA3F10A0104EB4101498C8142C3
:103FF00009D10A2B04EB420228BF0023508C04EBAA
:104000004303588451842046BDE810401BF08CBA0D
:10401000CC210308D521030880220308CA22030803
:10402000D82203081BF049BA38B518BB124B134805
:104030001C681349B4B122682244026062682244B9
:104040000A60A26814440F4B00221A8000F02AF87C
:10405000054600F025F80C4B1C600C4B1D600C4B0A
:10406000188007E00B4B03600B4B0B600B4B1C687D
:10407000002CE8D138BD00BF103C0020083C0020D7
:10408000043C00200C3C0020206F0120286F012000
:10409000246F0120B4570E90B0570E90B8570E9071
:1040A0000020704700487047143C002010B5054CB4
:1040B000FFF7E0FE2060FFF719FF6060FFF79EFE4C
:1040C000A06010BD143C002010B5002404600C60FA
:1040D00014601C6010BD704710B504464FF4AE71FB
:1040E00029F0A1FF204610BD10B50446D0F85801B4
:1040F00000F013F82046BDE8104018F0E9BD0000BC
:1041000010B50446FFF788FC014B2046236010BD24
:10411000B42303080022026070477047014B1B68FC
:10412000596370479001002070470438704770470A
:1041300010B50446102129F076FF204610BDA0F1ED
:104140000400F5E70022C1608260024A0260183272
:1041500042607047082403088068FFF7DFBF70479C
:10416000034B10B504460360FFF71CFD204610BD4D
:104170003024030810B50446FFF7F2FF41F618613A
:10418000204629F050FF204610BD000010B504461F
:10419000FFF750FD014B2046236010BD302403087B
:1041A000FFF7DEBC38B504460D46C06BFFF7D4FF01
:1041B00004F5C67084F8B251BDE8384016F016BB5D
:1041C00000B54FF4807295B04FF0807103460C92A9
:1041D00005220F9101210692002201910B92139268
:1041E00000920B48CDE90312CDE90D22CDE9112251
:1041F000102206A902924FF4800205926A4601F04D
:1042000071FD003818BF012015B05DF804FB00BF38
:10421000203C002000B54FF4807395B041F2883205
:1042200017480C93062306A906930023CDE90D3306
:104230000F930B931393CDE9113301F00EFDE0B909
:10424000022301224FF4800104900D48CDE9003390
:104250001023CDE9023205236A46CDE905134FF05C
:10426000807306A90F9341F2883301F03BFD0038BB
:1042700018BF012015B05DF804FB0120FAE700BF6C
:10428000203C002000B54FF4807391B04FF0407295
:104290000E480893EB2302A902934FF4406309935D
:1042A0004FF4005305930023CDE90A320A220F93FD
:1042B00007926A46CDE90D33CDE9003301F063FD85
:1042C000003818BF012011B05DF804FB203C00202D
:1042D000454B01219A6B42F00202F0B59A638DB012
:1042E0009A6B0924414D042702F002020026284659
:1042F0000092009A9A6942F002029A619A6922F049
:1043000002029A611A6B42F002021A631A6B02F0FF
:1043100002020192019A1A6B42F002021A631A6BAE
:1043200002F002020292029A1A6B42F008021A6329
:104330001A6B02F008020392039A1A6B42F0080209
:104340001A631A6B02F008020492049A1A6B42F084
:1043500010021A631A6B02F010020592059A1A6B8A
:1043600042F008021A6340221B6B03F00803069315
:10437000069B0223CDE907230323CDE909130A2372
:1043800007A90B9300F036FC07A928460797099662
:104390000B9400F02FFC4FF4006307A90B941D440D
:1043A0000793284600F026FC4FF4805307A92846BF
:1043B00007930B9400F01EFC07A90D4807970B9478
:1043C00000F018FC4FF4005307A928460B940793FC
:1043D00000F010FC32460F215C2000F0D3F95C2085
:1043E00000F002FA0DB0F0BD0038024000040240B7
:1043F00000100240F0B5494C91B0494B2046236073
:1044000001F018FC054610B1012011B0F0BD0146C5
:104410002046FFF75DFF012604234FF08077C4E9B3
:1044200001631023E36097FAA7F3B3FA83F32046FE
:10443000013B23614FF4A063C4E90755C4E9053586
:1044400001F0A6FB0028DFD14FF4807566230B90A6
:1044500041F28832079002A90F9008950293CDE9A6
:104460000900CDE90D00204601F0F7FB08B104205A
:10447000CBE7992341F2883202A92046029301F04A
:10448000ECFB0028F3D141F28830FFF799FE0028B9
:10449000EDD18523079041F2883202A90895029355
:1044A0000B97CDE90900CDE90C60CDE90E0020465F
:1044B00001F0D3FB0028DAD141F288320DF1070177
:1044C000204601F04AFD0028D1D1FFF7A3FE0028C5
:1044D000CDD18123F022029392FAA2F20A219DF813
:1044E0000730B2FA82F2204603F00F0301FA02F21B
:1044F00002A9134341F288328DF8073001F0ADFB79
:104500000028B4D141F288320DF10701204601F0B4
:10451000C5FC00283FF479AFA9E700BF203C00208C
:10452000001000A00F490020D1F8883043F4700338
:10453000C1F888300C4B1A6842F001021A6098608A
:104540001A6822F0847222F480321A60074A5A6094
:104550001A6822F480221A60D8604FF000638B60E2
:10456000704700BF00ED00E000380240103000242A
:104570007047002070470000002337B58DF80730E2
:104580000C4B1A780AB901221A700324C5B2013CF7
:10459000A8212846FDF796FB14F0FF048DF80700CC
:1045A0009DF80730DBB201D0512BF0D19DF8070008
:1045B00003B030BD6E3C002013B500240221C0B210
:1045C0008DF80740FDF77EFB8DF807009DF807305A
:1045D00003F00F038DF807309DF80730052B01D944
:1045E0008DF807409DF80720034B9DF807005A708F
:1045F00000229A7002B010BD6E3C00202DE9F74FEA
:104600002F4C15464FF000080F46A37862788DF8BE
:1046100007809A424DD9092B4ED803EB43035B0028
:10462000DBB2191D03F1030B03F1060A0533C9B20E
:104630005FFA8BFB5FFA8AFA5FFA83F8C6B2DFF89B
:1046400084903046FDF73EFB8DF807009DF807305B
:1046500059463046A9F80030FDF734FB8DF80700C5
:1046600051469DF807303046B9F800201B0203F48C
:10467000706313433B80A9F80030FDF723FB8DF8EE
:10468000070041469DF807303046A9F80030FDF795
:1046900019FB8DF807009DF80730B9F800201B02C0
:1046A00003F470631343A9F800302B80A37801331F
:1046B000A37003B0BDE8F08FC246C3464146BDE7D4
:1046C0006E3C00206C3C00200122A421C0B2FDF70A
:1046D000DFBA0022A421C0B2FDF7DABAFFF7F9BFB2
:1046E00070470000024B1A780AB901221A7070470D
:1046F0006E3C0020074A032008B5136843F480731A
:10470000136000F02DF80020FDF75CF9FCF7C6FE01
:10471000002008BD003C0240034A044B11681B788E
:104720000B441360704700BF743C00203800002029
:10473000014B1868704700BF743C002038B5044630
:10474000FFF7F6FF0546631C1EBF044B1B78E418F9
:10475000FFF7EEFF431BA342FAD338BD3800002019
:1047600007490302CA6803F4E06322F4E06212041A
:10477000120C134343F0BF6343F40033CB60704724
:1047800000ED00E0164B30B5DC68C4F30224C4F140
:104790000703251D042B28BF0423062D4FF0FF35EA
:1047A0008CBF033C002405FA03F3002805FA04F546
:1047B00021EA030322EA050203FA04F343EA0203AF
:1047C0004FEA0313DBB206DB00F1604000F5614005
:1047D00080F8003330BD00F00F00024A1354F9E7AF
:1047E00000ED00E014ED00E0002807DB41090123A3
:1047F00000F01F00024A834042F82130704700BF9A
:1048000000E100E000280CDB4309012200F01F005A
:1048100004492033824041F82320BFF34F8FBFF378
:104820006F8F704700E100E0BFF35F8F044B5A6A5F
:1048300022F480325A620022C3F89420704700BFED
:1048400000ED00E0064B40F00100C3F894005A6A06
:1048500042F480325A62BFF34F8FBFF36F8F7047BD
:1048600000ED00E04378144A10B5C2F898300178A2
:10487000E9B14368C2F89C30C37A047B1B0643EA63
:1048800004730B43817A43EAC143417B43EA81438A
:10489000817B43EA4143C17B43EA0143417A43EAD6
:1048A0000123017A43EA4103C2F8A03010BDC2F8E7
:1048B0009C10C2F8A010F9E700ED00E010B5044626
:1048C00008B9012010BD437F03F0FF0213B902773E
:1048D000FCF702FE022363772379E3B92368134AC6
:1048E0005A619A6822F018029A6062792368D2B9F4
:1048F0004FF0FF321A6100209A68616922F060026D
:104900000A43A1699A609A6822F080020A439A6079
:1049100001236377D6E7D4E90212204600F008F8B5
:104920000028E2D0CDE72269E4E700BFB71DC1044B
:104930001F2310B5013B1DD321FA03F4E407F9D579
:10494000102A13D0102A04D83AB1082A10D0012016
:104950000BE0182AFBD1062BF9D800684161836867
:1049600023F0180313438360002010BD072BF3E7E7
:104970000F2BF1E7102AE5D1E9E770B50446866D03
:10498000FFF7D6FE054694F83530022B06D080237B
:1049900001206365002384F8343070BD23681A68F1
:1049A00022F016021A605A6922F080025A61226CC3
:1049B0000AB9A26C1AB11A6822F008021A601A68C1
:1049C00022F001021A602368186810F0010007D174
:1049D000E26D3F239340B360012384F83530D9E77B
:1049E000FFF7A6FE401B0528EDD9202303206365B1
:1049F00084F83500CEE710B5044630B390F839306E
:104A000003F0FF021BB980F83820FCF77BFD226819
:104A100002236168002084F83930136823F440339E
:104A20000B43A1681360536B23F007030B43E1684A
:104A30005363136C23F47F5323F03F030B4313643E
:104A40000123E06384F8393010BD0120FCE7704792
:104A50007047036870B55E6804461D68F20714D598
:104A6000E90512D51A6822F480721A60C26B42F00E
:104A70000102C26301229A60042380F839300023C6
:104A800080F83830436903B19847B20616D5AB04B5
:104A900014D523681A6822F400521A6020229A6002
:104AA000E36B43F00203E363042384F8393000230B
:104AB00084F8383063690BB120469847300716D523
:104AC000290514D523681A6822F400621A600822A6
:104AD0009A60E36B43F00403E363042384F8393002
:104AE000002384F8383063690BB120469847720779
:104AF0000BD56B0509D5236820461A6822F480621D
:104B00001A6004229A60FFF7A2FFB00714D5A90526
:104B100012D523681A6822F400721A6002229A6081
:104B2000E36BE363012384F83930002384F83830E1
:104B300023690BB120469847F20613D5EB0411D533
:104B4000236820461A6822F480521A6010229A6064
:104B5000E36BE363012384F83930002384F83830B1
:104B6000FFF776FF70BD0000F0B590F838200346DF
:104B70000220012A2BD0012283F839000E011C4F9C
:104B800083F8382003EB0112D2E90740556A44EA62
:104B90000040093C012C96BF05F07F4240EA0560C9
:104BA00010431A68A1B9516A012C01EA070141EAD0
:104BB000000151629969916103D8596A21F07F41DE
:104BC00091620122002083F8392083F83800F0BD7B
:104BD000D169012C01EA070141EA0001D16103EB2F
:104BE000060189691161ECD825F07F451562E8E777
:104BF000F0FFFC002DE9F74F0023DFF8BC916C4A71
:104C000001240D689C4004EA0506AC4340F0B780DF
:104C10004D6803274FEA430E05F0030407FA0EFC24
:104C2000671E6FEA0C0C012F34D8876807EA0C085E
:104C3000CF6807FA0EF747EA08078760476827EA50
:104C40000608C5F300179F4047EA08074760C76892
:104C5000022C07EA0C088F6807FA0EF747EA0807E4
:104C6000C76019D14FEAD30803F0070A4FF00F0BC2
:104C700000EB88084FEA8A0AD8F820700BFA0AFB82
:104C800027EA0B0B0F6907FA0AF747EA0B07C8F880
:104C9000207001E0032CDAD1076804FA0EF415F451
:104CA000403F07EA0C0744EA0704046067D0D9F8DC
:104CB000444023F0030703F0030C4FF00F0E44F4BD
:104CC000804407F180474FEA8C0CC9F8444007F54F
:104CD0009C37D9F844400EFA0CFE04F48044019449
:104CE000019CBC6824EA0E0E324CA0424ED004F562
:104CF0008064A0424CD004F58064A0424AD004F500
:104D00008064A04248D004F58064A04246D004F5F7
:104D10008064A04244D004F58064A04242D004F5EF
:104D20008064A04240D004F58064A0423ED004F5E7
:104D30008064A04214BF0A24092404FA0CF415F478
:104D4000801F44EA0E04BC606FEA060794680CBF3B
:104D50003C40344315F4001F9460D4680CBF3C40C1
:104D6000344315F4003FD46054680CBF3C403443D6
:104D7000ED035460146854BF3C4034431460013365
:104D8000102B7FF43DAF03B0BDE8F08F0024D4E7D3
:104D90000124D2E70224D0E70324CEE70424CCE7A1
:104DA0000524CAE70624C8E70724C6E70824C4E7A1
:104DB000003C014000000240003802402DE9F04F65
:104DC00000224FF0010A4FF00F084FF0030B464C42
:104DD0000AFA02FC3CEA01030CEA01066CD122F05B
:104DE000030502F0030705F18045BF0005F59C357A
:104DF00008FA07F9AB6809EA030E3C4B984260D009
:104E000003F5806398425ED003F5806398425CD0DE
:104E100003F5806398425AD003F58063984258D0D6
:104E200003F58063984256D003F58063984254D0CE
:104E300003F58063984252D003F58063984250D0C6
:104E400003F5806398420CBF09230A23BB407345D6
:104E500013D1236823EA06032360636823EA060369
:104E60006360E36823EA0603E360A36823EA0603BA
:104E7000A360AB6823EA0903AB6053000568D6085A
:104E80000BFA03F300EB860625EA0305056002F042
:104E90000705376AAD0008FA05F527EA0507376206
:104EA000C56825EA0305C560456825EA0C05456027
:104EB000856825EA030383600132102A88D1BDE8A2
:104EC000F08F0023C2E70123C0E70223BEE70323DC
:104ED000BCE70423BAE70523B8E70623B6E70723B0
:104EE000B4E70823B2E700BF003C014000000240E5
:104EF0000369194214BF0120002070470AB1816183
:104F000070470904FBE7436901EA030221EA030150
:104F100041EA02418161704703689A69910701D5AE
:104F200000229A629A69D20703D49A6942F0010278
:104F30009A61704730B5039DC1F3090104682B43A2
:104F4000606843EA0243054A0B4342EA555223F0A4
:104F5000004320EA02000343636030BDFF63FF03A8
:104F600003682DE9F0419C6905460F46164614F08A
:104F700010046FD000241022A046DA612B689A69D1
:104F8000900661D4B8F1000F35D044F0040401203C
:104F90002E68B369D90505D54FF4807244F0010439
:104FA0000120F2615A0505D54FF4806244F00804EF
:104FB0000120F2619B054FD54FF4007344F00204C9
:104FC000F3612846FFF7A8FF7368012023F0FF7301
:104FD00023F48B3323F4FF7323F0010373606B6CB2
:104FE00023436B64202385F84130002385F8423049
:104FF00085F8403032E07A1CC1D0FFF799FB801B66
:10500000B84201D8002FB9D12B68596895F84220D1
:105010009869D2B200040AD5490408D4202A06D0DF
:105020005A6842F480425A60FFF782FB06462B68BA
:105030009B699B06A2D4FFF77BFB801B1928F6D93E
:1050400020244FF0010899E7B8F1000F9DD12022EC
:10505000DA619AE720469BE70028B2D1BDE8F081EB
:1050600070B504460D46164623689B699B0701D51B
:1050700000201BE0324629462046FFF771FFA0B909
:105080006A1CF1D0FFF754FB801BA84201D8002D09
:10509000EAD1636C43F020036364202384F8413039
:1050A000002384F8423084F84030012070BD70B590
:1050B00004460D46164623689B699B0601D50020D1
:1050C00019E0324629462046FFF74AFF90B9FFF71C
:1050D0002FFB801BA84201D8002DECD1636C43F05C
:1050E00020036364202384F84130002384F8423095
:1050F00084F84030012070BD2DE9F041069F044640
:10510000884616461D462268936938EA03030CBF99
:1051100001230023B34201D0002015E06B1CF3D023
:10512000FFF706FBC01BA84201D8002DEBD1636C32
:10513000012043F020036364202384F841300023DE
:1051400084F8423084F84030BDE8F08110B5044660
:1051500000284AD090F8413003F0FF021BB980F8D4
:105160004020FCF7EFF9242384F8413023681A68C3
:1051700022F001021A60626822F070621A619A6875
:1051800022F400429A60D4E90221012924D142F498
:1051900000429A605A68002042F0007242F40042D5
:1051A0005A60DA6822F40042DA60D4E904210A4342
:1051B000A16942EA0122DA60D4E907210A431A60B0
:1051C0001A6842F001021A602023606484F84130BA
:1051D000206384F8420010BD42F4044202299A6020
:1051E000D8D14FF400625A60D4E70120F3E710B53C
:1051F000044698B10268242380F84130136823F0F4
:1052000001031360FCF7E2F90020606484F84000B9
:1052100084F84100206384F8420010BD0120FCE7BF
:105220002DE9F74F994690F8413004460F46202B60
:105230001646BDF834A0DDF8388040F0C6800C9BDF
:1052400013B1BAF1000F06D14FF40073636401206B
:1052500003B0BDE8F08F90F84030012B00F0B5802E
:105260004FF0010B80F840B0FFF762FA19230546B2
:1052700000905A464FF400412046FFF73DFF0028BA
:10528000E5D1212360635FFA89F2394684F8413021
:10529000402384F842300C9B6064204663624C4B90
:1052A000A4F82AA000934FF08073FFF743FE2A462C
:1052B00041462046FFF7D4FE18BBB9F1010F236821
:1052C00015D1F6B20022802120469E624346009509
:1052D000FFF712FFA8B9638D9BB2FF2B15D8628D23
:1052E0004FF0007392B22285D2B2009012E0320ADF
:1052F000414620469A622A46FFF7B2FE08B9236863
:10530000DFE7002384F84030A1E7FF224FF08073ED
:105310002285009039462046FFF70CFE2A4641467A
:105320002046FFF79DFE002891D1636A226813F89A
:10533000011B91626362638D228D013B013A9BB236
:1053400092B26385638D22859BB2B3B1AAB94346FD
:10535000802120460095FFF7CFFE00287FF477AF2D
:10536000638D9BB2FF2B28D9FF224FF080732285DB
:10537000009039462046FFF7DDFD638D9BB2002B80
:10538000CCD12A4641462046FFF791FE00287FF403
:105390005EAF23682021D9615A6822F0FF7222F49F
:1053A0008B3222F4FF7222F001025A6084F841101D
:1053B00084F8400084F842004AE7628D4FF00073A1
:1053C00092B22285D2B20090D3E7022040E700BF1C
:1053D000002000802DE9F74F994690F841300446AF
:1053E0000F46202B1646BDF834A0DDF8388040F07B
:1053F000C9800C9B13B1BAF1000F06D14FF40073B2
:105400006364012003B0BDE8F08F90F84030012BB9
:1054100000F0B8804FF0010B80F840B0FFF788F93A
:105420001923009005465A464FF400412046FFF7E5
:1054300063FE03460028E4D122226063394684F8E3
:105440004120402284F842200C9A60642046626227
:105450004D4AA4F82AA000925FFA89F2FFF76AFD8C
:105460002A4641462046FFF7FBFD20BBB9F1010F5C
:10547000236816D1F6B20022402120469E624346A0
:105480000095FFF739FEB0B9638D9BB2FF2B3F4B00
:1054900015D8628D92B22285D2B200934FF000737C
:1054A00012E0320A414620469A622A46FFF7D8FDAA
:1054B00008B92368DEE7002384F84030A1E7FF2223
:1054C000228500934FF0807339462046FFF732FD66
:1054D00043460022042120460095FFF70DFE0028D8
:1054E0008FD123685A6A636A1A70636A228D013306
:1054F000013A6362638D92B2013B22859BB2638560
:10550000638D9BB2B3B1AAB9434680212046009572
:10551000FFF7F2FD00287FF474AF638D9BB2FF2B81
:1055200028D9FF224FF0807322850090394620460B
:10553000FFF700FD638D9BB2002BC9D12A4641467F
:105540002046FFF7B4FD00287FF45BAF23682021DD
:10555000D9615A6822F0FF7222F48B3222F4FF7272
:1055600022F001025A6084F8411084F8400084F867
:10557000420047E7628D4FF0007392B22285D2B2AB
:105580000090D3E702203DE7002000800024008047
:1055900010B590F841200346202AD4B21CD190F8CF
:1055A0004020012A18D0242280F841200268106887
:1055B00020F001001060106820F480501060106826
:1055C000014300201160116841F00101116083F86E
:1055D000414083F8400010BD0220FCE710B590F870
:1055E00041200346202AD4B21BD190F84020012A42
:1055F00017D0242280F841200268106820F00100B2
:105600001060106820F4706040EA012100201160F1
:10561000116841F00101116083F8414083F84000B6
:1056200010BD0220FCE7D2010068D1F800C084322E
:1056300083182DE9F043C6680CF101075D684FF04F
:10564000000E4C68C6F30B4605F47045D1F818906F
:1056500026445D60C568C5F30B453D4445EA0645F3
:105660005D60C668CD68C6F30A062E449D6805F4E1
:1056700070459D608D68C7680135C7F30A073D44D2
:1056800045EA06450E699D601D6925F007051D6107
:105690001E619D6991F8327091F83180C3F818E06D
:1056A00091F8305045EA096545EA082545EA07457D
:1056B0009D615D6925F0FF055D614D695D61DD6995
:1056C00025F4E06525F00705DD61D1E907573D4385
:1056D000DD619D6A4D6AC3F828E09D621EB3012E0C
:1056E00023D0B51E022D22D9072E14BF0125022575
:1056F000DE6AA4EB0C0406F0E0266C43DE620334A1
:105700008E6AC96A6E4344EA0644DC621C6B24F468
:10571000FF6424F007041C631963835843F00103FA
:105720008350BDE8F0830425E2E70325E0E7022586
:10573000DEE7000038B50446002863D090F8A130B9
:1057400003F0FF021BB980F8A020FBF75BFF0223E8
:1057500084F8A13023689A6922F070429A619969AD
:10576000D4E901200243E0680243206902436069F2
:105770000A4325499A619A680A409A609A6842EAFF
:105780000042A0690243E0699A60DA680A40DA6080
:10579000DA6842EA0042206A0243606ADA601A6903
:1057A0000A401A611A6942EA0042A06A02431A6179
:1057B0005A690A40E16A5A615A6942EA0142216B18
:1057C0000A435A61DA6A94F8350002F07F4294F88D
:1057D0003610DA62DD6A94F834202A4342EA002265
:1057E000002042EA0142DA625A6B42F006025A6332
:1057F0009A6942F001029A610123C4F8A40084F876
:10580000A13038BD0120FCE700F800F07047704778
:10581000036870B59E6B04465D6B720714D569070B
:1058200012D55A6B22F004025A630422DA63D0F8CC
:10583000A43043F00103C0F8A430002380F8A12075
:1058400080F8A030FFF7E2FFB20716D5AB0714D5FA
:10585000236820465A6B22F002025A630222DA635E
:10586000D4F8A4301343C4F8A430042384F8A1303E
:10587000002384F8A030FFF7C9FFF00710D5E9072F
:105880000ED5236820465A6B22F001025A6301228A
:10589000DA63002384F8A12084F8A030FDF740FEED
:1058A000320711D52B070FD5236820465A6B22F0FB
:1058B00008025A630822DA63012384F8A130002326
:1058C00084F8A030FFF7A3FF70BD2DE9F04190F8F8
:1058D000A03006460F469446012B4FF002001FD021
:1058E00034244FF001080D4686F8A10004FB026441
:1058F00086F8A08038340FCD0FC40FCD0FC40FCD64
:105900000FC42B683046624639462360FFF78BFE92
:1059100033680020C3F8248086F8A18086F8A000B0
:10592000BDE8F08190F8A02003460220012A12D0A1
:105930001A6883F8A100506B20F0010050630648FC
:1059400001640020516B41F001015163012283F891
:10595000A00083F8A120704700680140194B37B5BB
:105960001A6C194C42F080521A641B6C03F080537D
:105970000193019B236843F480332360FEF7D8FE34
:1059800005466368DA030CD523680F4D43F40033F2
:105990002360FEF7CDFE04466B689B030AD500200A
:1059A00006E0FEF7C5FE401BB0F57A7FE9D903207B
:1059B00003B030BDFEF7BCFE001BB0F57A7FEBD91B
:1059C000F5E700BF00380240007000402DE9F047C5
:1059D0004E6A36B1B2F1406F03D08B6A0468013B66
:1059E0002361D1F818A0D1E9077EBAF1000F4CD09D
:1059F0004C6905684FEA844C4AEA06040B68D1F802
:105A0000348044EA020AD1E90B09BEF1000F24D028
:105A10008E684AEA0E04EE610E699FB13B43034370
:105A2000C86843EA090343EA08033343034343EAEC
:105A30000C032343B2F1406F6B6101D04B68AB6143
:105A4000BDE8F087034343EA090343EA080333430D
:105A500043EA0C0323436B61F2E767B13B43034323
:105A6000C86843EA090343EA0803034343EA0C0313
:105A700043EA0A03DEE7034343EA090343EA08046F
:105A800044EA0C0343EA0A03E5E7BEF1000F2CD019
:105A900046EA0E058B6804684E691543E361D1F848
:105AA00034C0B6040B69D1E90B8EA7B13B43C8687B
:105AB000B2F1406F43EA080343EA0E0343EA0C03E2
:105AC00043EA000343EA060343EA05036361B7D0F0
:105AD0004B68A361B4E743EA080343EA0E0343EAD1
